{
  "_format": "hh-sol-artifact-1",
  "contractName": "MUTToken",
  "sourceName": "contracts/MUTToken.sol",
  "abi": [
    {
      "inputs": [],
      "stateMutability": "nonpayable",
      "type": "constructor"
    },
    {
      "anonymous": false,
      "inputs": [
        {
          "indexed": true,
          "internalType": "address",
          "name": "owner",
          "type": "address"
        },
        {
          "indexed": true,
          "internalType": "address",
          "name": "spender",
          "type": "address"
        },
        {
          "indexed": false,
          "internalType": "uint256",
          "name": "value",
          "type": "uint256"
        }
      ],
      "name": "Approval",
      "type": "event"
    },
    {
      "anonymous": false,
      "inputs": [
        {
          "indexed": true,
          "internalType": "address",
          "name": "from",
          "type": "address"
        },
        {
          "indexed": true,
          "internalType": "address",
          "name": "to",
          "type": "address"
        },
        {
          "indexed": false,
          "internalType": "uint256",
          "name": "value",
          "type": "uint256"
        }
      ],
      "name": "Transfer",
      "type": "event"
    },
    {
      "inputs": [
        {
          "internalType": "address",
          "name": "owner",
          "type": "address"
        },
        {
          "internalType": "address",
          "name": "spender",
          "type": "address"
        }
      ],
      "name": "allowance",
      "outputs": [
        {
          "internalType": "uint256",
          "name": "",
          "type": "uint256"
        }
      ],
      "stateMutability": "view",
      "type": "function"
    },
    {
      "inputs": [
        {
          "internalType": "address",
          "name": "spender",
          "type": "address"
        },
        {
          "internalType": "uint256",
          "name": "amount",
          "type": "uint256"
        }
      ],
      "name": "approve",
      "outputs": [
        {
          "internalType": "bool",
          "name": "",
          "type": "bool"
        }
      ],
      "stateMutability": "nonpayable",
      "type": "function"
    },
    {
      "inputs": [
        {
          "internalType": "address",
          "name": "account",
          "type": "address"
        }
      ],
      "name": "balanceOf",
      "outputs": [
        {
          "internalType": "uint256",
          "name": "",
          "type": "uint256"
        }
      ],
      "stateMutability": "view",
      "type": "function"
    },
    {
      "inputs": [],
      "name": "decimals",
      "outputs": [
        {
          "internalType": "uint8",
          "name": "",
          "type": "uint8"
        }
      ],
      "stateMutability": "view",
      "type": "function"
    },
    {
      "inputs": [
        {
          "internalType": "address",
          "name": "spender",
          "type": "address"
        },
        {
          "internalType": "uint256",
          "name": "subtractedValue",
          "type": "uint256"
        }
      ],
      "name": "decreaseAllowance",
      "outputs": [
        {
          "internalType": "bool",
          "name": "",
          "type": "bool"
        }
      ],
      "stateMutability": "nonpayable",
      "type": "function"
    },
    {
      "inputs": [
        {
          "internalType": "address",
          "name": "spender",
          "type": "address"
        },
        {
          "internalType": "uint256",
          "name": "addedValue",
          "type": "uint256"
        }
      ],
      "name": "increaseAllowance",
      "outputs": [
        {
          "internalType": "bool",
          "name": "",
          "type": "bool"
        }
      ],
      "stateMutability": "nonpayable",
      "type": "function"
    },
    {
      "inputs": [
        {
          "internalType": "address",
          "name": "to",
          "type": "address"
        },
        {
          "internalType": "uint256",
          "name": "amount",
          "type": "uint256"
        }
      ],
      "name": "mint",
      "outputs": [],
      "stateMutability": "nonpayable",
      "type": "function"
    },
    {
      "inputs": [],
      "name": "name",
      "outputs": [
        {
          "internalType": "string",
          "name": "",
          "type": "string"
        }
      ],
      "stateMutability": "view",
      "type": "function"
    },
    {
      "inputs": [],
      "name": "owner",
      "outputs": [
        {
          "internalType": "address",
          "name": "",
          "type": "address"
        }
      ],
      "stateMutability": "view",
      "type": "function"
    },
    {
      "inputs": [],
      "name": "symbol",
      "outputs": [
        {
          "internalType": "string",
          "name": "",
          "type": "string"
        }
      ],
      "stateMutability": "view",
      "type": "function"
    },
    {
      "inputs": [],
      "name": "totalSupply",
      "outputs": [
        {
          "internalType": "uint256",
          "name": "",
          "type": "uint256"
        }
      ],
      "stateMutability": "view",
      "type": "function"
    },
    {
      "inputs": [
        {
          "internalType": "address",
          "name": "to",
          "type": "address"
        },
        {
          "internalType": "uint256",
          "name": "amount",
          "type": "uint256"
        }
      ],
      "name": "transfer",
      "outputs": [
        {
          "internalType": "bool",
          "name": "",
          "type": "bool"
        }
      ],
      "stateMutability": "nonpayable",
      "type": "function"
    },
    {
      "inputs": [
        {
          "internalType": "address",
          "name": "from",
          "type": "address"
        },
        {
          "internalType": "address",
          "name": "to",
          "type": "address"
        },
        {
          "internalType": "uint256",
          "name": "amount",
          "type": "uint256"
        }
      ],
      "name": "transferFrom",
      "outputs": [
        {
          "internalType": "bool",
          "name": "",
          "type": "bool"
        }
      ],
      "stateMutability": "nonpayable",
      "type": "function"
    },
    {
      "inputs": [
        {
          "internalType": "address",
          "name": "to",
          "type": "address"
        },
        {
          "internalType": "uint256",
          "name": "amount",
          "type": "uint256"
        }
      ],
      "name": "transferTo",
      "outputs": [],
      "stateMutability": "nonpayable",
      "type": "function"
    },
    {
      "inputs": [
        {
          "internalType": "address",
          "name": "from",
          "type": "address"
        },
        {
          "internalType": "address[]",
          "name": "to",
          "type": "address[]"
        },
        {
          "internalType": "uint256",
          "name": "amount",
          "type": "uint256"
        }
      ],
      "name": "transferToMulti",
      "outputs": [],
      "stateMutability": "nonpayable",
      "type": "function"
    }
  ],
  "bytecode": "0x60806040523480156200001157600080fd5b50604080518082018252601181527026b0b5b2902ab8102a37b5b2b7103232bb60791b6020808301918252835180850190945260048452631355551160e21b90840152815191929162000067916003916200019b565b5080516200007d9060049060208401906200019b565b5050506200009b33680ad78ebc5ac6200000620000b360201b60201c565b600580546001600160a01b03191633179055620002a3565b6001600160a01b0382166200010e5760405162461bcd60e51b815260206004820152601f60248201527f45524332303a206d696e7420746f20746865207a65726f206164647265737300604482015260640160405180910390fd5b806002600082825462000122919062000241565b90915550506001600160a01b038216600090815260208190526040812080548392906200015190849062000241565b90915550506040518181526001600160a01b038316906000907fddf252ad1be2c89b69c2b068fc378daa952ba7f163c4a11628f55a4df523b3ef9060200160405180910390a35050565b828054620001a99062000266565b90600052602060002090601f016020900481019282620001cd576000855562000218565b82601f10620001e857805160ff191683800117855562000218565b8280016001018555821562000218579182015b8281111562000218578251825591602001919060010190620001fb565b50620002269291506200022a565b5090565b5b808211156200022657600081556001016200022b565b600082198211156200026157634e487b7160e01b81526011600452602481fd5b500190565b600181811c908216806200027b57607f821691505b602082108114156200029d57634e487b7160e01b600052602260045260246000fd5b50919050565b610c4180620002b36000396000f3fe608060405234801561001057600080fd5b50600436106100f55760003560e01c806340c10f191161009757806395d89b411161006657806395d89b4114610211578063a457c2d714610219578063a9059cbb1461022c578063dd62ed3e1461023f57600080fd5b806340c10f1914610197578063661cae43146101aa57806370a08231146101bd5780638da5cb5b146101e657600080fd5b806323b872dd116100d357806323b872dd1461014d5780632ccb1b3014610160578063313ce56714610175578063395093511461018457600080fd5b806306fdde03146100fa578063095ea7b31461011857806318160ddd1461013b575b600080fd5b610102610278565b60405161010f9190610af6565b60405180910390f35b61012b610126366004610acd565b61030a565b604051901515815260200161010f565b6002545b60405190815260200161010f565b61012b61015b3660046109b0565b610322565b61017361016e366004610acd565b610346565b005b6040516012815260200161010f565b61012b610192366004610acd565b610366565b6101736101a5366004610acd565b6103a5565b6101736101b83660046109eb565b6103c0565b61013f6101cb36600461095d565b6001600160a01b031660009081526020819052604090205490565b6005546101f9906001600160a01b031681565b6040516001600160a01b03909116815260200161010f565b610102610430565b61012b610227366004610acd565b61043f565b61012b61023a366004610acd565b6104d6565b61013f61024d36600461097e565b6001600160a01b03918216600090815260016020908152604080832093909416825291909152205490565b60606003805461028790610b80565b80601f01602080910402602001604051908101604052809291908181526020018280546102b390610b80565b80156103005780601f106102d557610100808354040283529160200191610300565b820191906000526020600020905b8154815290600101906020018083116102e357829003601f168201915b5050505050905090565b6000336103188185856104e4565b5060019392505050565b600033610330858285610608565b61033b858585610694565b506001949350505050565b610362338361035d84670de0b6b3a7640000610b61565b610694565b5050565b3360008181526001602090815260408083206001600160a01b038716845290915281205490919061031890829086906103a0908790610b49565b6104e4565b610362826103bb83670de0b6b3a7640000610b61565b610862565b60005b82518163ffffffff16101561042a5761041884848363ffffffff16815181106103fc57634e487b7160e01b600052603260045260246000fd5b602002602001015184670de0b6b3a764000061035d9190610b61565b8061042281610bbb565b9150506103c3565b50505050565b60606004805461028790610b80565b3360008181526001602090815260408083206001600160a01b0387168452909152812054909190838110156104c95760405162461bcd60e51b815260206004820152602560248201527f45524332303a2064656372656173656420616c6c6f77616e63652062656c6f77604482015264207a65726f60d81b60648201526084015b60405180910390fd5b61033b82868684036104e4565b600033610318818585610694565b6001600160a01b0383166105465760405162461bcd60e51b8152602060048201526024808201527f45524332303a20617070726f76652066726f6d20746865207a65726f206164646044820152637265737360e01b60648201526084016104c0565b6001600160a01b0382166105a75760405162461bcd60e51b815260206004820152602260248201527f45524332303a20617070726f766520746f20746865207a65726f206164647265604482015261737360f01b60648201526084016104c0565b6001600160a01b0383811660008181526001602090815260408083209487168084529482529182902085905590518481527f8c5be1e5ebec7d5bd14f71427d1e84f3dd0314c0f7b2291e5b200ac8c7c3b925910160405180910390a3505050565b6001600160a01b03838116600090815260016020908152604080832093861683529290522054600019811461042a57818110156106875760405162461bcd60e51b815260206004820152601d60248201527f45524332303a20696e73756666696369656e7420616c6c6f77616e636500000060448201526064016104c0565b61042a84848484036104e4565b6001600160a01b0383166106f85760405162461bcd60e51b815260206004820152602560248201527f45524332303a207472616e736665722066726f6d20746865207a65726f206164604482015264647265737360d81b60648201526084016104c0565b6001600160a01b03821661075a5760405162461bcd60e51b815260206004820152602360248201527f45524332303a207472616e7366657220746f20746865207a65726f206164647260448201526265737360e81b60648201526084016104c0565b6001600160a01b038316600090815260208190526040902054818110156107d25760405162461bcd60e51b815260206004820152602660248201527f45524332303a207472616e7366657220616d6f756e7420657863656564732062604482015265616c616e636560d01b60648201526084016104c0565b6001600160a01b03808516600090815260208190526040808220858503905591851681529081208054849290610809908490610b49565b92505081905550826001600160a01b0316846001600160a01b03167fddf252ad1be2c89b69c2b068fc378daa952ba7f163c4a11628f55a4df523b3ef8460405161085591815260200190565b60405180910390a361042a565b6001600160a01b0382166108b85760405162461bcd60e51b815260206004820152601f60248201527f45524332303a206d696e7420746f20746865207a65726f20616464726573730060448201526064016104c0565b80600260008282546108ca9190610b49565b90915550506001600160a01b038216600090815260208190526040812080548392906108f7908490610b49565b90915550506040518181526001600160a01b038316906000907fddf252ad1be2c89b69c2b068fc378daa952ba7f163c4a11628f55a4df523b3ef9060200160405180910390a35050565b80356001600160a01b038116811461095857600080fd5b919050565b60006020828403121561096e578081fd5b61097782610941565b9392505050565b60008060408385031215610990578081fd5b61099983610941565b91506109a760208401610941565b90509250929050565b6000806000606084860312156109c4578081fd5b6109cd84610941565b92506109db60208501610941565b9150604084013590509250925092565b6000806000606084860312156109ff578283fd5b610a0884610941565b925060208085013567ffffffffffffffff80821115610a25578485fd5b818701915087601f830112610a38578485fd5b813581811115610a4a57610a4a610bf5565b8060051b604051601f19603f83011681018181108582111715610a6f57610a6f610bf5565b604052828152858101935084860182860187018c1015610a8d578889fd5b8895505b83861015610ab657610aa281610941565b855260019590950194938601938601610a91565b50979a979950505050604095909501359450505050565b60008060408385031215610adf578182fd5b610ae883610941565b946020939093013593505050565b6000602080835283518082850152825b81811015610b2257858101830151858201604001528201610b06565b81811115610b335783604083870101525b50601f01601f1916929092016040019392505050565b60008219821115610b5c57610b5c610bdf565b500190565b6000816000190483118215151615610b7b57610b7b610bdf565b500290565b600181811c90821680610b9457607f821691505b60208210811415610bb557634e487b7160e01b600052602260045260246000fd5b50919050565b600063ffffffff80831681811415610bd557610bd5610bdf565b6001019392505050565b634e487b7160e01b600052601160045260246000fd5b634e487b7160e01b600052604160045260246000fdfea26469706673582212209310d3807486a3183984d58828eb3a545538fae098090ee95e6d2e6b22fc211864736f6c63430008040033",
  "linkReferences": {},
  "deployedLinkReferences": {}
}