{
  "_format": "hh-sol-artifact-1",
  "contractName": "MUTToken",
  "sourceName": "contracts/MUTToken.sol",
  "abi": [
    {
      "inputs": [],
      "stateMutability": "nonpayable",
      "type": "constructor"
    },
    {
      "anonymous": false,
      "inputs": [
        {
          "indexed": true,
          "internalType": "address",
          "name": "owner",
          "type": "address"
        },
        {
          "indexed": true,
          "internalType": "address",
          "name": "spender",
          "type": "address"
        },
        {
          "indexed": false,
          "internalType": "uint256",
          "name": "value",
          "type": "uint256"
        }
      ],
      "name": "Approval",
      "type": "event"
    },
    {
      "anonymous": false,
      "inputs": [
        {
          "indexed": true,
          "internalType": "address",
          "name": "from",
          "type": "address"
        },
        {
          "indexed": true,
          "internalType": "address",
          "name": "to",
          "type": "address"
        },
        {
          "indexed": false,
          "internalType": "uint256",
          "name": "value",
          "type": "uint256"
        }
      ],
      "name": "Transfer",
      "type": "event"
    },
    {
      "inputs": [
        {
          "internalType": "address",
          "name": "owner",
          "type": "address"
        },
        {
          "internalType": "address",
          "name": "spender",
          "type": "address"
        }
      ],
      "name": "allowance",
      "outputs": [
        {
          "internalType": "uint256",
          "name": "",
          "type": "uint256"
        }
      ],
      "stateMutability": "view",
      "type": "function"
    },
    {
      "inputs": [
        {
          "internalType": "address",
          "name": "spender",
          "type": "address"
        },
        {
          "internalType": "uint256",
          "name": "amount",
          "type": "uint256"
        }
      ],
      "name": "approve",
      "outputs": [
        {
          "internalType": "bool",
          "name": "",
          "type": "bool"
        }
      ],
      "stateMutability": "nonpayable",
      "type": "function"
    },
    {
      "inputs": [
        {
          "internalType": "address",
          "name": "account",
          "type": "address"
        }
      ],
      "name": "balanceOf",
      "outputs": [
        {
          "internalType": "uint256",
          "name": "",
          "type": "uint256"
        }
      ],
      "stateMutability": "view",
      "type": "function"
    },
    {
      "inputs": [],
      "name": "decimals",
      "outputs": [
        {
          "internalType": "uint8",
          "name": "",
          "type": "uint8"
        }
      ],
      "stateMutability": "view",
      "type": "function"
    },
    {
      "inputs": [
        {
          "internalType": "address",
          "name": "spender",
          "type": "address"
        },
        {
          "internalType": "uint256",
          "name": "subtractedValue",
          "type": "uint256"
        }
      ],
      "name": "decreaseAllowance",
      "outputs": [
        {
          "internalType": "bool",
          "name": "",
          "type": "bool"
        }
      ],
      "stateMutability": "nonpayable",
      "type": "function"
    },
    {
      "inputs": [
        {
          "internalType": "address",
          "name": "spender",
          "type": "address"
        },
        {
          "internalType": "uint256",
          "name": "addedValue",
          "type": "uint256"
        }
      ],
      "name": "increaseAllowance",
      "outputs": [
        {
          "internalType": "bool",
          "name": "",
          "type": "bool"
        }
      ],
      "stateMutability": "nonpayable",
      "type": "function"
    },
    {
      "inputs": [
        {
          "internalType": "address",
          "name": "to",
          "type": "address"
        },
        {
          "internalType": "uint256",
          "name": "amount",
          "type": "uint256"
        }
      ],
      "name": "mint",
      "outputs": [],
      "stateMutability": "nonpayable",
      "type": "function"
    },
    {
      "inputs": [],
      "name": "name",
      "outputs": [
        {
          "internalType": "string",
          "name": "",
          "type": "string"
        }
      ],
      "stateMutability": "view",
      "type": "function"
    },
    {
      "inputs": [],
      "name": "owner",
      "outputs": [
        {
          "internalType": "address",
          "name": "",
          "type": "address"
        }
      ],
      "stateMutability": "view",
      "type": "function"
    },
    {
      "inputs": [],
      "name": "symbol",
      "outputs": [
        {
          "internalType": "string",
          "name": "",
          "type": "string"
        }
      ],
      "stateMutability": "view",
      "type": "function"
    },
    {
      "inputs": [],
      "name": "totalSupply",
      "outputs": [
        {
          "internalType": "uint256",
          "name": "",
          "type": "uint256"
        }
      ],
      "stateMutability": "view",
      "type": "function"
    },
    {
      "inputs": [
        {
          "internalType": "address",
          "name": "to",
          "type": "address"
        },
        {
          "internalType": "uint256",
          "name": "amount",
          "type": "uint256"
        }
      ],
      "name": "transfer",
      "outputs": [
        {
          "internalType": "bool",
          "name": "",
          "type": "bool"
        }
      ],
      "stateMutability": "nonpayable",
      "type": "function"
    },
    {
      "inputs": [
        {
          "internalType": "address",
          "name": "from",
          "type": "address"
        },
        {
          "internalType": "address",
          "name": "to",
          "type": "address"
        },
        {
          "internalType": "uint256",
          "name": "amount",
          "type": "uint256"
        }
      ],
      "name": "transferFrom",
      "outputs": [
        {
          "internalType": "bool",
          "name": "",
          "type": "bool"
        }
      ],
      "stateMutability": "nonpayable",
      "type": "function"
    }
  ],
  "bytecode": "0x6080604052600680546001600160a01b031916732db32df980080758d6b522964ec23806e8eb3cd11790553480156200003757600080fd5b50604080518082018252601181527026b0b5b2902ab8102a37b5b2b7103232bb60791b6020808301918252835180850190945260048452631355551160e21b9084015281519192916200008d91600391620001c1565b508051620000a3906004906020840190620001c1565b505050620000c133680ad78ebc5ac6200000620000d960201b60201c565b600580546001600160a01b03191633179055620002c9565b6001600160a01b038216620001345760405162461bcd60e51b815260206004820152601f60248201527f45524332303a206d696e7420746f20746865207a65726f206164647265737300604482015260640160405180910390fd5b806002600082825462000148919062000267565b90915550506001600160a01b038216600090815260208190526040812080548392906200017790849062000267565b90915550506040518181526001600160a01b038316906000907fddf252ad1be2c89b69c2b068fc378daa952ba7f163c4a11628f55a4df523b3ef9060200160405180910390a35050565b828054620001cf906200028c565b90600052602060002090601f016020900481019282620001f357600085556200023e565b82601f106200020e57805160ff19168380011785556200023e565b828001600101855582156200023e579182015b828111156200023e57825182559160200191906001019062000221565b506200024c92915062000250565b5090565b5b808211156200024c576000815560010162000251565b600082198211156200028757634e487b7160e01b81526011600452602481fd5b500190565b600181811c90821680620002a157607f821691505b60208210811415620002c357634e487b7160e01b600052602260045260246000fd5b50919050565b610a6a80620002d96000396000f3fe608060405234801561001057600080fd5b50600436106100cf5760003560e01c806340c10f191161008c57806395d89b411161006657806395d89b41146101c5578063a457c2d7146101cd578063a9059cbb146101e0578063dd62ed3e146101f357600080fd5b806340c10f191461015c57806370a08231146101715780638da5cb5b1461019a57600080fd5b806306fdde03146100d4578063095ea7b3146100f257806318160ddd1461011557806323b872dd14610127578063313ce5671461013a5780633950935114610149575b600080fd5b6100dc61022c565b6040516100e99190610982565b60405180910390f35b610105610100366004610959565b6102be565b60405190151581526020016100e9565b6002545b6040519081526020016100e9565b61010561013536600461091e565b6102d6565b604051601281526020016100e9565b610105610157366004610959565b6102fa565b61016f61016a366004610959565b610339565b005b61011961017f3660046108cb565b6001600160a01b031660009081526020819052604090205490565b6005546101ad906001600160a01b031681565b6040516001600160a01b0390911681526020016100e9565b6100dc61039d565b6101056101db366004610959565b6103ac565b6101056101ee366004610959565b61043e565b6101196102013660046108ec565b6001600160a01b03918216600090815260016020908152604080832093909416825291909152205490565b60606003805461023b906109f9565b80601f0160208091040260200160405190810160405280929190818152602001828054610267906109f9565b80156102b45780601f10610289576101008083540402835291602001916102b4565b820191906000526020600020905b81548152906001019060200180831161029757829003601f168201915b5050505050905090565b6000336102cc81858561044c565b5060019392505050565b6000336102e4858285610570565b6102ef858585610602565b506001949350505050565b3360008181526001602090815260408083206001600160a01b03871684529091528120549091906102cc90829086906103349087906109d5565b61044c565b6005546001600160a01b0316331461038f5760405162461bcd60e51b81526020600482015260146024820152732cb7ba93b932903737ba103a34329037bbb732b960611b60448201526064015b60405180910390fd5b61039982826107d0565b5050565b60606004805461023b906109f9565b3360008181526001602090815260408083206001600160a01b0387168452909152812054909190838110156104315760405162461bcd60e51b815260206004820152602560248201527f45524332303a2064656372656173656420616c6c6f77616e63652062656c6f77604482015264207a65726f60d81b6064820152608401610386565b6102ef828686840361044c565b6000336102cc818585610602565b6001600160a01b0383166104ae5760405162461bcd60e51b8152602060048201526024808201527f45524332303a20617070726f76652066726f6d20746865207a65726f206164646044820152637265737360e01b6064820152608401610386565b6001600160a01b03821661050f5760405162461bcd60e51b815260206004820152602260248201527f45524332303a20617070726f766520746f20746865207a65726f206164647265604482015261737360f01b6064820152608401610386565b6001600160a01b0383811660008181526001602090815260408083209487168084529482529182902085905590518481527f8c5be1e5ebec7d5bd14f71427d1e84f3dd0314c0f7b2291e5b200ac8c7c3b925910160405180910390a3505050565b6001600160a01b0383811660009081526001602090815260408083209386168352929052205460001981146105fc57818110156105ef5760405162461bcd60e51b815260206004820152601d60248201527f45524332303a20696e73756666696369656e7420616c6c6f77616e63650000006044820152606401610386565b6105fc848484840361044c565b50505050565b6001600160a01b0383166106665760405162461bcd60e51b815260206004820152602560248201527f45524332303a207472616e736665722066726f6d20746865207a65726f206164604482015264647265737360d81b6064820152608401610386565b6001600160a01b0382166106c85760405162461bcd60e51b815260206004820152602360248201527f45524332303a207472616e7366657220746f20746865207a65726f206164647260448201526265737360e81b6064820152608401610386565b6001600160a01b038316600090815260208190526040902054818110156107405760405162461bcd60e51b815260206004820152602660248201527f45524332303a207472616e7366657220616d6f756e7420657863656564732062604482015265616c616e636560d01b6064820152608401610386565b6001600160a01b038085166000908152602081905260408082208585039055918516815290812080548492906107779084906109d5565b92505081905550826001600160a01b0316846001600160a01b03167fddf252ad1be2c89b69c2b068fc378daa952ba7f163c4a11628f55a4df523b3ef846040516107c391815260200190565b60405180910390a36105fc565b6001600160a01b0382166108265760405162461bcd60e51b815260206004820152601f60248201527f45524332303a206d696e7420746f20746865207a65726f2061646472657373006044820152606401610386565b806002600082825461083891906109d5565b90915550506001600160a01b038216600090815260208190526040812080548392906108659084906109d5565b90915550506040518181526001600160a01b038316906000907fddf252ad1be2c89b69c2b068fc378daa952ba7f163c4a11628f55a4df523b3ef9060200160405180910390a35050565b80356001600160a01b03811681146108c657600080fd5b919050565b6000602082840312156108dc578081fd5b6108e5826108af565b9392505050565b600080604083850312156108fe578081fd5b610907836108af565b9150610915602084016108af565b90509250929050565b600080600060608486031215610932578081fd5b61093b846108af565b9250610949602085016108af565b9150604084013590509250925092565b6000806040838503121561096b578182fd5b610974836108af565b946020939093013593505050565b6000602080835283518082850152825b818110156109ae57858101830151858201604001528201610992565b818111156109bf5783604083870101525b50601f01601f1916929092016040019392505050565b600082198211156109f457634e487b7160e01b81526011600452602481fd5b500190565b600181811c90821680610a0d57607f821691505b60208210811415610a2e57634e487b7160e01b600052602260045260246000fd5b5091905056fea26469706673582212202fe8f83e53e0bac3f72da405818f61595155adc48d091d906200bd1e0653182564736f6c63430008040033",
  "linkReferences": {},
  "deployedLinkReferences": {}
}