{
  "_format": "hh-sol-artifact-1",
  "contractName": "VRFv2ForVoterSelection",
  "sourceName": "contracts/VRFv2ForVoterSelection.sol",
  "abi": [
    {
      "inputs": [
        {
          "internalType": "uint64",
          "name": "subscriptionId",
          "type": "uint64"
        }
      ],
      "stateMutability": "nonpayable",
      "type": "constructor"
    },
    {
      "inputs": [
        {
          "internalType": "address",
          "name": "have",
          "type": "address"
        },
        {
          "internalType": "address",
          "name": "want",
          "type": "address"
        }
      ],
      "name": "OnlyCoordinatorCanFulfill",
      "type": "error"
    },
    {
      "inputs": [
        {
          "internalType": "uint256",
          "name": "requestId",
          "type": "uint256"
        },
        {
          "internalType": "uint256[]",
          "name": "randomWords",
          "type": "uint256[]"
        }
      ],
      "name": "rawFulfillRandomWords",
      "outputs": [],
      "stateMutability": "nonpayable",
      "type": "function"
    },
    {
      "inputs": [
        {
          "internalType": "uint32",
          "name": "numWords",
          "type": "uint32"
        }
      ],
      "name": "requestRandomWords",
      "outputs": [],
      "stateMutability": "nonpayable",
      "type": "function"
    },
    {
      "inputs": [
        {
          "internalType": "uint256",
          "name": "",
          "type": "uint256"
        }
      ],
      "name": "s_randomWords",
      "outputs": [
        {
          "internalType": "uint256",
          "name": "",
          "type": "uint256"
        }
      ],
      "stateMutability": "view",
      "type": "function"
    },
    {
      "inputs": [],
      "name": "s_requestId",
      "outputs": [
        {
          "internalType": "uint256",
          "name": "",
          "type": "uint256"
        }
      ],
      "stateMutability": "view",
      "type": "function"
    }
  ],
  "bytecode": "0x60a0604052600180546001600160a01b031916737a1bac17ccc5b313516c5e16fb24f7659aa5ebed1790557f4b09e658ed251bcafeebbc69400383d49f344ace09b9576fe248bb02c003fe9f600255600380546403000186a065ffffffffffff1990911617905534801561007257600080fd5b5060405161062d38038061062d833981016040819052610091916100f3565b6001546001600160601b0319606082901b1660805260008054600680546001600160a01b031916331790556001600160401b03909316600160a01b026001600160e01b03199093166001600160a01b0390921691909117919091179055610121565b600060208284031215610104578081fd5b81516001600160401b038116811461011a578182fd5b9392505050565b60805160601c6104e96101446000396000818160b2015260f401526104e96000f3fe608060405234801561001057600080fd5b506004361061004c5760003560e01c80631fe543e314610051578063e726f2e114610066578063e89e106a14610079578063f6eaffc814610094575b600080fd5b61006461005f366004610356565b6100a7565b005b610064610074366004610422565b610133565b61008260055481565b60405190815260200160405180910390f35b6100826100a2366004610326565b6101f9565b336001600160a01b037f000000000000000000000000000000000000000000000000000000000000000016146101255760405163073e64fd60e21b81523360048201526001600160a01b037f000000000000000000000000000000000000000000000000000000000000000016602482015260440160405180910390fd5b61012f828261021a565b5050565b6000546002546003546040516305d3b1d360e41b81526004810192909252600160a01b830467ffffffffffffffff166024830152640100000000810461ffff16604483015263ffffffff9081166064830152831660848201526001600160a01b0390911690635d3b1d309060a401602060405180830381600087803b1580156101bb57600080fd5b505af11580156101cf573d6000803e3d6000fd5b505050506040513d601f19601f820116820180604052508101906101f3919061033e565b60055550565b6004818154811061020957600080fd5b600091825260209091200154905081565b60005b81518163ffffffff1610156102c157600a828263ffffffff168151811061025457634e487b7160e01b600052603260045260246000fd5b6020026020010151610266919061047d565b828263ffffffff168151811061028c57634e487b7160e01b600052603260045260246000fd5b60200260200101818152505081600490805190602001906102ae9291906102c6565b50806102b98161044d565b91505061021d565b505050565b828054828255906000526020600020908101928215610301579160200282015b828111156103015782518255916020019190600101906102e6565b5061030d929150610311565b5090565b5b8082111561030d5760008155600101610312565b600060208284031215610337578081fd5b5035919050565b60006020828403121561034f578081fd5b5051919050565b60008060408385031215610368578081fd5b8235915060208084013567ffffffffffffffff80821115610387578384fd5b818601915086601f83011261039a578384fd5b8135818111156103ac576103ac61049d565b8060051b604051601f19603f830116810181811085821117156103d1576103d161049d565b604052828152858101935084860182860187018b10156103ef578788fd5b8795505b838610156104115780358552600195909501949386019386016103f3565b508096505050505050509250929050565b600060208284031215610433578081fd5b813563ffffffff81168114610446578182fd5b9392505050565b600063ffffffff8083168181141561047357634e487b7160e01b83526011600452602483fd5b6001019392505050565b60008261049857634e487b7160e01b81526012600452602481fd5b500690565b634e487b7160e01b600052604160045260246000fdfea2646970667358221220c76e7659cde942bd5d3ca10b9692e6874fbfbc0abaa2031f7a21a7ae9955335f64736f6c63430008040033",
  "linkReferences": {},
  "deployedLinkReferences": {}
}