{
  "_format": "hh-sol-artifact-1",
  "contractName": "NFTMarketplace",
  "sourceName": "contracts/NFTMarketplace.sol",
  "abi": [
    {
      "inputs": [],
      "stateMutability": "nonpayable",
      "type": "constructor"
    },
    {
      "anonymous": false,
      "inputs": [
        {
          "indexed": true,
          "internalType": "address",
          "name": "owner",
          "type": "address"
        },
        {
          "indexed": true,
          "internalType": "address",
          "name": "approved",
          "type": "address"
        },
        {
          "indexed": true,
          "internalType": "uint256",
          "name": "tokenId",
          "type": "uint256"
        }
      ],
      "name": "Approval",
      "type": "event"
    },
    {
      "anonymous": false,
      "inputs": [
        {
          "indexed": true,
          "internalType": "address",
          "name": "owner",
          "type": "address"
        },
        {
          "indexed": true,
          "internalType": "address",
          "name": "operator",
          "type": "address"
        },
        {
          "indexed": false,
          "internalType": "bool",
          "name": "approved",
          "type": "bool"
        }
      ],
      "name": "ApprovalForAll",
      "type": "event"
    },
    {
      "anonymous": false,
      "inputs": [
        {
          "indexed": true,
          "internalType": "uint256",
          "name": "contestId",
          "type": "uint256"
        },
        {
          "indexed": false,
          "internalType": "address",
          "name": "owner",
          "type": "address"
        },
        {
          "indexed": false,
          "internalType": "string",
          "name": "contestName",
          "type": "string"
        },
        {
          "indexed": false,
          "internalType": "string",
          "name": "description",
          "type": "string"
        },
        {
          "indexed": false,
          "internalType": "bool",
          "name": "active",
          "type": "bool"
        },
        {
          "indexed": false,
          "internalType": "uint256",
          "name": "winningPrice",
          "type": "uint256"
        },
        {
          "indexed": false,
          "internalType": "uint256",
          "name": "maxParticipants",
          "type": "uint256"
        },
        {
          "indexed": false,
          "internalType": "uint256",
          "name": "participantFee",
          "type": "uint256"
        },
        {
          "indexed": false,
          "internalType": "uint256",
          "name": "participantPrice",
          "type": "uint256"
        }
      ],
      "name": "ContestItemCreated",
      "type": "event"
    },
    {
      "anonymous": false,
      "inputs": [
        {
          "indexed": true,
          "internalType": "uint256",
          "name": "tokenId",
          "type": "uint256"
        },
        {
          "indexed": false,
          "internalType": "address",
          "name": "seller",
          "type": "address"
        },
        {
          "indexed": false,
          "internalType": "address",
          "name": "owner",
          "type": "address"
        },
        {
          "indexed": false,
          "internalType": "uint256",
          "name": "price",
          "type": "uint256"
        },
        {
          "indexed": false,
          "internalType": "bool",
          "name": "sold",
          "type": "bool"
        }
      ],
      "name": "MarketItemCreated",
      "type": "event"
    },
    {
      "anonymous": false,
      "inputs": [
        {
          "indexed": true,
          "internalType": "address",
          "name": "from",
          "type": "address"
        },
        {
          "indexed": true,
          "internalType": "address",
          "name": "to",
          "type": "address"
        },
        {
          "indexed": true,
          "internalType": "uint256",
          "name": "tokenId",
          "type": "uint256"
        }
      ],
      "name": "Transfer",
      "type": "event"
    },
    {
      "inputs": [
        {
          "internalType": "address",
          "name": "to",
          "type": "address"
        },
        {
          "internalType": "uint256",
          "name": "tokenId",
          "type": "uint256"
        }
      ],
      "name": "approve",
      "outputs": [],
      "stateMutability": "nonpayable",
      "type": "function"
    },
    {
      "inputs": [
        {
          "internalType": "address",
          "name": "owner",
          "type": "address"
        }
      ],
      "name": "balanceOf",
      "outputs": [
        {
          "internalType": "uint256",
          "name": "",
          "type": "uint256"
        }
      ],
      "stateMutability": "view",
      "type": "function"
    },
    {
      "inputs": [
        {
          "internalType": "string",
          "name": "contestName",
          "type": "string"
        },
        {
          "internalType": "string",
          "name": "description",
          "type": "string"
        },
        {
          "internalType": "uint256",
          "name": "winningPrice",
          "type": "uint256"
        },
        {
          "internalType": "uint256",
          "name": "maxParticipants",
          "type": "uint256"
        },
        {
          "internalType": "uint256",
          "name": "participantFee",
          "type": "uint256"
        },
        {
          "internalType": "uint256",
          "name": "participantPrice",
          "type": "uint256"
        }
      ],
      "name": "createContestItem",
      "outputs": [],
      "stateMutability": "payable",
      "type": "function"
    },
    {
      "inputs": [
        {
          "internalType": "uint256",
          "name": "tokenId",
          "type": "uint256"
        }
      ],
      "name": "createMarketSale",
      "outputs": [],
      "stateMutability": "payable",
      "type": "function"
    },
    {
      "inputs": [
        {
          "internalType": "string",
          "name": "tokenURI",
          "type": "string"
        },
        {
          "internalType": "uint256",
          "name": "price",
          "type": "uint256"
        }
      ],
      "name": "createToken",
      "outputs": [
        {
          "internalType": "uint256",
          "name": "",
          "type": "uint256"
        }
      ],
      "stateMutability": "payable",
      "type": "function"
    },
    {
      "inputs": [],
      "name": "fetchAllContests",
      "outputs": [
        {
          "components": [
            {
              "internalType": "uint256",
              "name": "contestId",
              "type": "uint256"
            },
            {
              "internalType": "address payable",
              "name": "owner",
              "type": "address"
            },
            {
              "internalType": "string",
              "name": "contestName",
              "type": "string"
            },
            {
              "internalType": "string",
              "name": "description",
              "type": "string"
            },
            {
              "internalType": "bool",
              "name": "active",
              "type": "bool"
            },
            {
              "internalType": "uint256",
              "name": "winningPrice",
              "type": "uint256"
            },
            {
              "internalType": "uint256",
              "name": "maxParticipants",
              "type": "uint256"
            },
            {
              "internalType": "uint256",
              "name": "participantFee",
              "type": "uint256"
            },
            {
              "internalType": "uint256",
              "name": "participantPrice",
              "type": "uint256"
            }
          ],
          "internalType": "struct NFTMarketplace.ContestItem[]",
          "name": "",
          "type": "tuple[]"
        }
      ],
      "stateMutability": "view",
      "type": "function"
    },
    {
      "inputs": [
        {
          "internalType": "uint256",
          "name": "contestId",
          "type": "uint256"
        }
      ],
      "name": "fetchContestParticipates",
      "outputs": [
        {
          "components": [
            {
              "internalType": "address[]",
              "name": "participants",
              "type": "address[]"
            }
          ],
          "internalType": "struct NFTMarketplace.ContestDetails",
          "name": "",
          "type": "tuple"
        }
      ],
      "stateMutability": "view",
      "type": "function"
    },
    {
      "inputs": [],
      "name": "fetchItemsListed",
      "outputs": [
        {
          "components": [
            {
              "internalType": "uint256",
              "name": "tokenId",
              "type": "uint256"
            },
            {
              "internalType": "address payable",
              "name": "seller",
              "type": "address"
            },
            {
              "internalType": "address payable",
              "name": "owner",
              "type": "address"
            },
            {
              "internalType": "uint256",
              "name": "price",
              "type": "uint256"
            },
            {
              "internalType": "bool",
              "name": "sold",
              "type": "bool"
            }
          ],
          "internalType": "struct NFTMarketplace.MarketItem[]",
          "name": "",
          "type": "tuple[]"
        }
      ],
      "stateMutability": "view",
      "type": "function"
    },
    {
      "inputs": [],
      "name": "fetchMarketItems",
      "outputs": [
        {
          "components": [
            {
              "internalType": "uint256",
              "name": "tokenId",
              "type": "uint256"
            },
            {
              "internalType": "address payable",
              "name": "seller",
              "type": "address"
            },
            {
              "internalType": "address payable",
              "name": "owner",
              "type": "address"
            },
            {
              "internalType": "uint256",
              "name": "price",
              "type": "uint256"
            },
            {
              "internalType": "bool",
              "name": "sold",
              "type": "bool"
            }
          ],
          "internalType": "struct NFTMarketplace.MarketItem[]",
          "name": "",
          "type": "tuple[]"
        }
      ],
      "stateMutability": "view",
      "type": "function"
    },
    {
      "inputs": [],
      "name": "fetchMyNFTs",
      "outputs": [
        {
          "components": [
            {
              "internalType": "uint256",
              "name": "tokenId",
              "type": "uint256"
            },
            {
              "internalType": "address payable",
              "name": "seller",
              "type": "address"
            },
            {
              "internalType": "address payable",
              "name": "owner",
              "type": "address"
            },
            {
              "internalType": "uint256",
              "name": "price",
              "type": "uint256"
            },
            {
              "internalType": "bool",
              "name": "sold",
              "type": "bool"
            }
          ],
          "internalType": "struct NFTMarketplace.MarketItem[]",
          "name": "",
          "type": "tuple[]"
        }
      ],
      "stateMutability": "view",
      "type": "function"
    },
    {
      "inputs": [
        {
          "internalType": "uint256",
          "name": "tokenId",
          "type": "uint256"
        }
      ],
      "name": "getApproved",
      "outputs": [
        {
          "internalType": "address",
          "name": "",
          "type": "address"
        }
      ],
      "stateMutability": "view",
      "type": "function"
    },
    {
      "inputs": [],
      "name": "getListingPrice",
      "outputs": [
        {
          "internalType": "uint256",
          "name": "",
          "type": "uint256"
        }
      ],
      "stateMutability": "view",
      "type": "function"
    },
    {
      "inputs": [
        {
          "internalType": "address",
          "name": "owner",
          "type": "address"
        },
        {
          "internalType": "address",
          "name": "operator",
          "type": "address"
        }
      ],
      "name": "isApprovedForAll",
      "outputs": [
        {
          "internalType": "bool",
          "name": "",
          "type": "bool"
        }
      ],
      "stateMutability": "view",
      "type": "function"
    },
    {
      "inputs": [],
      "name": "kill",
      "outputs": [],
      "stateMutability": "nonpayable",
      "type": "function"
    },
    {
      "inputs": [],
      "name": "name",
      "outputs": [
        {
          "internalType": "string",
          "name": "",
          "type": "string"
        }
      ],
      "stateMutability": "view",
      "type": "function"
    },
    {
      "inputs": [
        {
          "internalType": "uint256",
          "name": "tokenId",
          "type": "uint256"
        }
      ],
      "name": "ownerOf",
      "outputs": [
        {
          "internalType": "address",
          "name": "",
          "type": "address"
        }
      ],
      "stateMutability": "view",
      "type": "function"
    },
    {
      "inputs": [
        {
          "internalType": "uint256",
          "name": "contestId",
          "type": "uint256"
        }
      ],
      "name": "participateInContest",
      "outputs": [],
      "stateMutability": "payable",
      "type": "function"
    },
    {
      "inputs": [
        {
          "internalType": "uint256",
          "name": "tokenId",
          "type": "uint256"
        },
        {
          "internalType": "uint256",
          "name": "price",
          "type": "uint256"
        }
      ],
      "name": "resellToken",
      "outputs": [],
      "stateMutability": "payable",
      "type": "function"
    },
    {
      "inputs": [
        {
          "internalType": "address",
          "name": "from",
          "type": "address"
        },
        {
          "internalType": "address",
          "name": "to",
          "type": "address"
        },
        {
          "internalType": "uint256",
          "name": "tokenId",
          "type": "uint256"
        }
      ],
      "name": "safeTransferFrom",
      "outputs": [],
      "stateMutability": "nonpayable",
      "type": "function"
    },
    {
      "inputs": [
        {
          "internalType": "address",
          "name": "from",
          "type": "address"
        },
        {
          "internalType": "address",
          "name": "to",
          "type": "address"
        },
        {
          "internalType": "uint256",
          "name": "tokenId",
          "type": "uint256"
        },
        {
          "internalType": "bytes",
          "name": "_data",
          "type": "bytes"
        }
      ],
      "name": "safeTransferFrom",
      "outputs": [],
      "stateMutability": "nonpayable",
      "type": "function"
    },
    {
      "inputs": [
        {
          "internalType": "address",
          "name": "operator",
          "type": "address"
        },
        {
          "internalType": "bool",
          "name": "approved",
          "type": "bool"
        }
      ],
      "name": "setApprovalForAll",
      "outputs": [],
      "stateMutability": "nonpayable",
      "type": "function"
    },
    {
      "inputs": [
        {
          "internalType": "bytes4",
          "name": "interfaceId",
          "type": "bytes4"
        }
      ],
      "name": "supportsInterface",
      "outputs": [
        {
          "internalType": "bool",
          "name": "",
          "type": "bool"
        }
      ],
      "stateMutability": "view",
      "type": "function"
    },
    {
      "inputs": [],
      "name": "symbol",
      "outputs": [
        {
          "internalType": "string",
          "name": "",
          "type": "string"
        }
      ],
      "stateMutability": "view",
      "type": "function"
    },
    {
      "inputs": [
        {
          "internalType": "uint256",
          "name": "tokenId",
          "type": "uint256"
        }
      ],
      "name": "tokenURI",
      "outputs": [
        {
          "internalType": "string",
          "name": "",
          "type": "string"
        }
      ],
      "stateMutability": "view",
      "type": "function"
    },
    {
      "inputs": [
        {
          "internalType": "address",
          "name": "from",
          "type": "address"
        },
        {
          "internalType": "address",
          "name": "to",
          "type": "address"
        },
        {
          "internalType": "uint256",
          "name": "tokenId",
          "type": "uint256"
        }
      ],
      "name": "transferFrom",
      "outputs": [],
      "stateMutability": "nonpayable",
      "type": "function"
    },
    {
      "inputs": [
        {
          "internalType": "uint256",
          "name": "_listingPrice",
          "type": "uint256"
        }
      ],
      "name": "updateListingPrice",
      "outputs": [],
      "stateMutability": "payable",
      "type": "function"
    }
  ],
  "bytecode": "0x60806040526658d15e17628000600b553480156200001c57600080fd5b50604080518082018252601081526f4d657461766572736520546f6b656e7360801b6020808301918252835180850190945260048452631351551560e21b9084015281519192916200007191600091620000a2565b50805162000087906001906020840190620000a2565b5050600c80546001600160a01b031916331790555062000185565b828054620000b09062000148565b90600052602060002090601f016020900481019282620000d457600085556200011f565b82601f10620000ef57805160ff19168380011785556200011f565b828001600101855582156200011f579182015b828111156200011f57825182559160200191906001019062000102565b506200012d92915062000131565b5090565b5b808211156200012d576000815560010162000132565b600181811c908216806200015d57607f821691505b602082108114156200017f57634e487b7160e01b600052602260045260246000fd5b50919050565b612dff80620001956000396000f3fe6080604052600436106101815760003560e01c80636352211e116100d1578063ae677aa31161008a578063c87b56dd11610064578063c87b56dd1461040d578063d5ee02f91461042d578063e219fc751461045a578063e985e9c51461046d57600080fd5b8063ae677aa3146103c7578063b88d4fde146103da578063be9af536146103fa57600080fd5b80636352211e1461032c57806370a082311461034c57806372b3b6201461036c57806376c7fe961461037f57806395d89b4114610392578063a22cb465146103a757600080fd5b8063202e37401161013e57806341c0e1b51161011857806341c0e1b5146102c057806342842e0e146102d557806345f8fa80146102f557806363196f5e1461030a57600080fd5b8063202e37401461027857806323b872dd1461028d57806328941ed8146102ad57600080fd5b806301ffc9a71461018657806306fdde03146101bb578063081812fc146101dd578063095ea7b3146102155780630f08efe01461023757806312e8558514610259575b600080fd5b34801561019257600080fd5b506101a66101a13660046127b1565b6104b6565b60405190151581526020015b60405180910390f35b3480156101c757600080fd5b506101d0610508565b6040516101b29190612b45565b3480156101e957600080fd5b506101fd6101f83660046128b0565b61059a565b6040516001600160a01b0390911681526020016101b2565b34801561022157600080fd5b50610235610230366004612788565b610627565b005b34801561024357600080fd5b5061024c61073d565b6040516101b29190612ac9565b34801561026557600080fd5b50600b545b6040519081526020016101b2565b34801561028457600080fd5b5061024c6108f1565b34801561029957600080fd5b506102356102a836600461269a565b610ae3565b6102356102bb3660046127e9565b610b14565b3480156102cc57600080fd5b50610235610d01565b3480156102e157600080fd5b506102356102f036600461269a565b610d1b565b34801561030157600080fd5b5061024c610d36565b34801561031657600080fd5b5061031f610f28565b6040516101b291906129e6565b34801561033857600080fd5b506101fd6103473660046128b0565b61122b565b34801561035857600080fd5b5061026a61036736600461264e565b6112a2565b61026a61037a36600461286d565b611329565b61023561038d3660046128b0565b61136b565b34801561039e57600080fd5b506101d06114c5565b3480156103b357600080fd5b506102356103c236600461274e565b6114d4565b6102356103d53660046128b0565b6114e3565b3480156103e657600080fd5b506102356103f53660046126d5565b61155b565b6102356104083660046128b0565b61158d565b34801561041957600080fd5b506101d06104283660046128b0565b6116f2565b34801561043957600080fd5b5061044d6104483660046128b0565b611869565b6040516101b29190612c3f565b6102356104683660046128c8565b61192d565b34801561047957600080fd5b506101a6610488366004612668565b6001600160a01b03918216600090815260056020908152604080832093909416825291909152205460ff1690565b60006001600160e01b031982166380ac58cd60e01b14806104e757506001600160e01b03198216635b5e139f60e01b145b8061050257506301ffc9a760e01b6001600160e01b03198316145b92915050565b60606000805461051790612d07565b80601f016020809104026020016040519081016040528092919081815260200182805461054390612d07565b80156105905780601f1061056557610100808354040283529160200191610590565b820191906000526020600020905b81548152906001019060200180831161057357829003601f168201915b5050505050905090565b60006105a582611a25565b61060b5760405162461bcd60e51b815260206004820152602c60248201527f4552433732313a20617070726f76656420717565727920666f72206e6f6e657860448201526b34b9ba32b73a103a37b5b2b760a11b60648201526084015b60405180910390fd5b506000908152600460205260409020546001600160a01b031690565b60006106328261122b565b9050806001600160a01b0316836001600160a01b031614156106a05760405162461bcd60e51b815260206004820152602160248201527f4552433732313a20617070726f76616c20746f2063757272656e74206f776e656044820152603960f91b6064820152608401610602565b336001600160a01b03821614806106bc57506106bc8133610488565b61072e5760405162461bcd60e51b815260206004820152603860248201527f4552433732313a20617070726f76652063616c6c6572206973206e6f74206f7760448201527f6e6572206e6f7220617070726f76656420666f7220616c6c00000000000000006064820152608401610602565b6107388383611a42565b505050565b6060600061074a60075490565b9050600061075760085490565b6007546107649190612cc4565b90506000808267ffffffffffffffff81111561079057634e487b7160e01b600052604160045260246000fd5b6040519080825280602002602001820160405280156107e957816020015b6040805160a0810182526000808252602080830182905292820181905260608201819052608082015282526000199092019101816107ae5790505b50905060005b848110156108e85730600d6000610807846001612c98565b81526020810191909152604001600020600201546001600160a01b031614156108d6576000610837826001612c98565b6000818152600d6020908152604091829020825160a0810184528154815260018201546001600160a01b039081169382019390935260028201549092169282019290925260038201546060820152600482015460ff1615156080820152855192935090918590879081106108bb57634e487b7160e01b600052603260045260246000fd5b60209081029190910101526108d1600186612c98565b945050505b806108e081612d42565b9150506107ef565b50949350505050565b606060006108fe60075490565b905060008060005b838110156109615733600d600061091e846001612c98565b81526020810191909152604001600020600201546001600160a01b0316141561094f5761094c600184612c98565b92505b8061095981612d42565b915050610906565b5060008267ffffffffffffffff81111561098b57634e487b7160e01b600052604160045260246000fd5b6040519080825280602002602001820160405280156109e457816020015b6040805160a0810182526000808252602080830182905292820181905260608201819052608082015282526000199092019101816109a95790505b50905060005b848110156108e85733600d6000610a02846001612c98565b81526020810191909152604001600020600201546001600160a01b03161415610ad1576000610a32826001612c98565b6000818152600d6020908152604091829020825160a0810184528154815260018201546001600160a01b039081169382019390935260028201549092169282019290925260038201546060820152600482015460ff161515608082015285519293509091859087908110610ab657634e487b7160e01b600052603260045260246000fd5b6020908102919091010152610acc600186612c98565b945050505b80610adb81612d42565b9150506109ea565b610aed3382611ab0565b610b095760405162461bcd60e51b815260040161060290612bee565b610738838383611b96565b610b4960405180604001604052806014815260200173496e20637265617465436f6e746573744974656d60601b815250611d32565b6000865111610b915760405162461bcd60e51b815260206004820152601460248201527350726f7669646520436f6e74657374204e616d6560601b6044820152606401610602565b610b9f600980546001019055565b6000610baa60095490565b60408051610120810182528281523060208083019182528284018c8152606084018c905260016080850181905260a085018c905260c085018b905260e085018a905261010085018990526000878152600e84529590952084518155925194830180546001600160a01b0319166001600160a01b03909616959095179094559251805194955091939092610c44926002850192910190612504565b5060608201518051610c60916003840191602090910190612504565b50608082015160048201805460ff191691151591909117905560a0820151600582015560c0820151600682015560e0820151600782015561010090910151600890910155600c5460405182917f9abd2285e5cb3f915d944ab3cd1e621a8f5f4574719cf3ec52e57e4923fca2ae91610cf0916001600160a01b0316908b908b906001908c908c908c908c90612944565b60405180910390a250505050505050565b600c546001600160a01b03163314610d1857600080fd5b33ff5b6107388383836040518060200160405280600081525061155b565b60606000610d4360075490565b905060008060005b83811015610da65733600d6000610d63846001612c98565b81526020810191909152604001600020600101546001600160a01b03161415610d9457610d91600184612c98565b92505b80610d9e81612d42565b915050610d4b565b5060008267ffffffffffffffff811115610dd057634e487b7160e01b600052604160045260246000fd5b604051908082528060200260200182016040528015610e2957816020015b6040805160a081018252600080825260208083018290529282018190526060820181905260808201528252600019909201910181610dee5790505b50905060005b848110156108e85733600d6000610e47846001612c98565b81526020810191909152604001600020600101546001600160a01b03161415610f16576000610e77826001612c98565b6000818152600d6020908152604091829020825160a0810184528154815260018201546001600160a01b039081169382019390935260028201549092169282019290925260038201546060820152600482015460ff161515608082015285519293509091859087908110610efb57634e487b7160e01b600052603260045260246000fd5b6020908102919091010152610f11600186612c98565b945050505b80610f2081612d42565b915050610e2f565b6060610f5e60405180604001604052806013815260200172696e206665746368416c6c436f6e746573747360681b815250611d32565b600080610f6a60095490565b67ffffffffffffffff811115610f9057634e487b7160e01b600052604160045260246000fd5b60405190808252806020026020018201604052801561101b57816020015b6110086040518061012001604052806000815260200160006001600160a01b031681526020016060815260200160608152602001600015158152602001600081526020016000815260200160008152602001600081525090565b815260200190600190039081610fae5790505b50905060005b600954811015611224576000611038826001612c98565b6000818152600e60209081526040918290208251610120810184528154815260018201546001600160a01b031692810192909252600281018054949550909391928492908401919061108990612d07565b80601f01602080910402602001604051908101604052809291908181526020018280546110b590612d07565b80156111025780601f106110d757610100808354040283529160200191611102565b820191906000526020600020905b8154815290600101906020018083116110e557829003601f168201915b5050505050815260200160038201805461111b90612d07565b80601f016020809104026020016040519081016040528092919081815260200182805461114790612d07565b80156111945780601f1061116957610100808354040283529160200191611194565b820191906000526020600020905b81548152906001019060200180831161117757829003601f168201915b5050509183525050600482015460ff161515602082015260058201546040820152600682015460608201526007820154608082015260089091015460a09091015284518590879081106111f757634e487b7160e01b600052603260045260246000fd5b602090810291909101015261120d600186612c98565b94505050808061121c90612d42565b915050611021565b5092915050565b6000818152600260205260408120546001600160a01b0316806105025760405162461bcd60e51b815260206004820152602960248201527f4552433732313a206f776e657220717565727920666f72206e6f6e657869737460448201526832b73a103a37b5b2b760b91b6064820152608401610602565b60006001600160a01b03821661130d5760405162461bcd60e51b815260206004820152602a60248201527f4552433732313a2062616c616e636520717565727920666f7220746865207a65604482015269726f206164647265737360b01b6064820152608401610602565b506001600160a01b031660009081526003602052604090205490565b6000611339600780546001019055565b600061134460075490565b90506113503382611d78565b61135a8185611eab565b6113648184611f36565b9392505050565b6000818152600e60205260409020546113ba5760405162461bcd60e51b815260206004820152601160248201527018dbdb9d195cdd081b9bdd08199bdd5b99607a1b6044820152606401610602565b6000818152600e602052604090206007015434146113ea5760405162461bcd60e51b815260040161060290612baa565b6000818152600e6020526040902060070154341461141a5760405162461bcd60e51b815260040161060290612baa565b6000818152600f60205260408120908190805b825481101561149657336001600160a01b031683828154811061146057634e487b7160e01b600052603260045260246000fd5b6000918252602090912001546001600160a01b031614156114845760019150611496565b8061148e81612d42565b91505061142d565b50806114bf5782546001810184556000848152602090200180546001600160a01b031916331790555b50505050565b60606001805461051790612d07565b6114df33838361208c565b5050565b600c546001600160a01b031633146115565760405162461bcd60e51b815260206004820152603060248201527f4f6e6c79206d61726b6574706c616365206f776e65722063616e20757064617460448201526f32903634b9ba34b73390383934b1b29760811b6064820152608401610602565b600b55565b6115653383611ab0565b6115815760405162461bcd60e51b815260040161060290612bee565b6114bf8484848461215b565b6000818152600d6020526040902060038101546001909101546001600160a01b0316348214611626576040805162461bcd60e51b81526020600482015260248101919091527f506c65617365207375626d6974207468652061736b696e67207072696365206960448201527f6e206f7264657220746f20636f6d706c657465207468652070757263686173656064820152608401610602565b6000838152600d602052604090206002810180546001600160a01b0319908116331790915560048201805460ff1916600190811790915590910180549091169055611675600880546001019055565b611680303385611b96565b600c54600b546040516001600160a01b039092169181156108fc0291906000818181858888f193505050501580156116bc573d6000803e3d6000fd5b506040516001600160a01b038216903480156108fc02916000818181858888f193505050501580156114bf573d6000803e3d6000fd5b60606116fd82611a25565b6117635760405162461bcd60e51b815260206004820152603160248201527f45524337323155524953746f726167653a2055524920717565727920666f72206044820152703737b732bc34b9ba32b73a103a37b5b2b760791b6064820152608401610602565b6000828152600660205260408120805461177c90612d07565b80601f01602080910402602001604051908101604052809291908181526020018280546117a890612d07565b80156117f55780601f106117ca576101008083540402835291602001916117f5565b820191906000526020600020905b8154815290600101906020018083116117d857829003601f168201915b50505050509050600061181360408051602081019091526000815290565b9050805160001415611826575092915050565b815115611858578082604051602001611840929190612915565b60405160208183030381529060405292505050919050565b6118618461218e565b949350505050565b6040805160208101909152606081526118b66040518060400160405280601b81526020017f696e206665746368436f6e746573745061727469636970617465730000000000815250611d32565b6000828152600f60209081526040918290208251815480840282018501855292810183815290939192849284919084018282801561191d57602002820191906000526020600020905b81546001600160a01b031681526001909101906020018083116118ff575b5050505050815250509050919050565b6000828152600d60205260409020600201546001600160a01b031633146119a95760405162461bcd60e51b815260206004820152602a60248201527f4f6e6c79206974656d206f776e65722063616e20706572666f726d20746869736044820152691037b832b930ba34b7b760b11b6064820152608401610602565b600b5434146119ca5760405162461bcd60e51b815260040161060290612baa565b6000828152600d6020526040902060048101805460ff19169055600381018290556001810180546001600160a01b031990811633179091556002909101805490911630179055611a1a6008612265565b6114df333084611b96565b6000908152600260205260409020546001600160a01b0316151590565b600081815260046020526040902080546001600160a01b0319166001600160a01b0384169081179091558190611a778261122b565b6001600160a01b03167f8c5be1e5ebec7d5bd14f71427d1e84f3dd0314c0f7b2291e5b200ac8c7c3b92560405160405180910390a45050565b6000611abb82611a25565b611b1c5760405162461bcd60e51b815260206004820152602c60248201527f4552433732313a206f70657261746f7220717565727920666f72206e6f6e657860448201526b34b9ba32b73a103a37b5b2b760a11b6064820152608401610602565b6000611b278361122b565b9050806001600160a01b0316846001600160a01b03161480611b625750836001600160a01b0316611b578461059a565b6001600160a01b0316145b8061186157506001600160a01b0380821660009081526005602090815260408083209388168352929052205460ff16611861565b826001600160a01b0316611ba98261122b565b6001600160a01b031614611c0d5760405162461bcd60e51b815260206004820152602560248201527f4552433732313a207472616e736665722066726f6d20696e636f72726563742060448201526437bbb732b960d91b6064820152608401610602565b6001600160a01b038216611c6f5760405162461bcd60e51b8152602060048201526024808201527f4552433732313a207472616e7366657220746f20746865207a65726f206164646044820152637265737360e01b6064820152608401610602565b611c7a600082611a42565b6001600160a01b0383166000908152600360205260408120805460019290611ca3908490612cc4565b90915550506001600160a01b0382166000908152600360205260408120805460019290611cd1908490612c98565b909155505060008181526002602052604080822080546001600160a01b0319166001600160a01b0386811691821790925591518493918716917fddf252ad1be2c89b69c2b068fc378daa952ba7f163c4a11628f55a4df523b3ef91a4505050565b611d7581604051602401611d469190612b45565b60408051601f198184030181529190526020810180516001600160e01b031663104c13eb60e21b1790526122bc565b50565b6001600160a01b038216611dce5760405162461bcd60e51b815260206004820181905260248201527f4552433732313a206d696e7420746f20746865207a65726f20616464726573736044820152606401610602565b611dd781611a25565b15611e245760405162461bcd60e51b815260206004820152601c60248201527f4552433732313a20746f6b656e20616c7265616479206d696e746564000000006044820152606401610602565b6001600160a01b0382166000908152600360205260408120805460019290611e4d908490612c98565b909155505060008181526002602052604080822080546001600160a01b0319166001600160a01b03861690811790915590518392907fddf252ad1be2c89b69c2b068fc378daa952ba7f163c4a11628f55a4df523b3ef908290a45050565b611eb482611a25565b611f175760405162461bcd60e51b815260206004820152602e60248201527f45524337323155524953746f726167653a2055524920736574206f66206e6f6e60448201526d32bc34b9ba32b73a103a37b5b2b760911b6064820152608401610602565b6000828152600660209081526040909120825161073892840190612504565b60008111611f865760405162461bcd60e51b815260206004820152601c60248201527f5072696365206d757374206265206174206c65617374203120776569000000006044820152606401610602565b600b543414611fa75760405162461bcd60e51b815260040161060290612baa565b6040805160a08101825283815233602080830182815230848601818152606086018881526000608088018181528b8252600d909652979097209551865591516001860180546001600160a01b03199081166001600160a01b0393841617909155925160028701805490941691161790915593516003840155516004909201805460ff19169215159290921790915561203f9184611b96565b604080513381523060208201529081018290526000606082015282907fb640004f1d14576d0c209e240cad0410e0d8c0c33a09375861fbadae2588a98d9060800160405180910390a25050565b816001600160a01b0316836001600160a01b031614156120ee5760405162461bcd60e51b815260206004820152601960248201527f4552433732313a20617070726f766520746f2063616c6c6572000000000000006044820152606401610602565b6001600160a01b03838116600081815260056020908152604080832094871680845294825291829020805460ff191686151590811790915591519182527f17307eab39ab6107e8899845ad3d59bd9653f200f220920489ca2b5937696c31910160405180910390a3505050565b612166848484611b96565b612172848484846122dd565b6114bf5760405162461bcd60e51b815260040161060290612b58565b606061219982611a25565b6121fd5760405162461bcd60e51b815260206004820152602f60248201527f4552433732314d657461646174613a2055524920717565727920666f72206e6f60448201526e3732bc34b9ba32b73a103a37b5b2b760891b6064820152608401610602565b600061221460408051602081019091526000815290565b905060008151116122345760405180602001604052806000815250611364565b8061223e846123ea565b60405160200161224f929190612915565b6040516020818303038152906040529392505050565b8054806122b45760405162461bcd60e51b815260206004820152601b60248201527f436f756e7465723a2064656372656d656e74206f766572666c6f7700000000006044820152606401610602565b600019019055565b80516a636f6e736f6c652e6c6f67602083016000808483855afa5050505050565b60006001600160a01b0384163b156123df57604051630a85bd0160e11b81526001600160a01b0385169063150b7a02906123219033908990889088906004016129a9565b602060405180830381600087803b15801561233b57600080fd5b505af192505050801561236b575060408051601f3d908101601f19168201909252612368918101906127cd565b60015b6123c5573d808015612399576040519150601f19603f3d011682016040523d82523d6000602084013e61239e565b606091505b5080516123bd5760405162461bcd60e51b815260040161060290612b58565b805181602001fd5b6001600160e01b031916630a85bd0160e11b149050611861565b506001949350505050565b60608161240e5750506040805180820190915260018152600360fc1b602082015290565b8160005b8115612438578061242281612d42565b91506124319050600a83612cb0565b9150612412565b60008167ffffffffffffffff81111561246157634e487b7160e01b600052604160045260246000fd5b6040519080825280601f01601f19166020018201604052801561248b576020820181803683370190505b5090505b8415611861576124a0600183612cc4565b91506124ad600a86612d5d565b6124b8906030612c98565b60f81b8183815181106124db57634e487b7160e01b600052603260045260246000fd5b60200101906001600160f81b031916908160001a9053506124fd600a86612cb0565b945061248f565b82805461251090612d07565b90600052602060002090601f0160209004810192826125325760008555612578565b82601f1061254b57805160ff1916838001178555612578565b82800160010185558215612578579182015b8281111561257857825182559160200191906001019061255d565b50612584929150612588565b5090565b5b808211156125845760008155600101612589565b600067ffffffffffffffff808411156125b8576125b8612d9d565b604051601f8501601f19908116603f011681019082821181831017156125e0576125e0612d9d565b816040528093508581528686860111156125f957600080fd5b858560208301376000602087830101525050509392505050565b80356001600160a01b038116811461262a57600080fd5b919050565b600082601f83011261263f578081fd5b6113648383356020850161259d565b60006020828403121561265f578081fd5b61136482612613565b6000806040838503121561267a578081fd5b61268383612613565b915061269160208401612613565b90509250929050565b6000806000606084860312156126ae578081fd5b6126b784612613565b92506126c560208501612613565b9150604084013590509250925092565b600080600080608085870312156126ea578081fd5b6126f385612613565b935061270160208601612613565b925060408501359150606085013567ffffffffffffffff811115612723578182fd5b8501601f81018713612733578182fd5b6127428782356020840161259d565b91505092959194509250565b60008060408385031215612760578182fd5b61276983612613565b91506020830135801515811461277d578182fd5b809150509250929050565b6000806040838503121561279a578182fd5b6127a383612613565b946020939093013593505050565b6000602082840312156127c2578081fd5b813561136481612db3565b6000602082840312156127de578081fd5b815161136481612db3565b60008060008060008060c08789031215612801578182fd5b863567ffffffffffffffff80821115612818578384fd5b6128248a838b0161262f565b97506020890135915080821115612839578384fd5b5061284689828a0161262f565b96999698505050506040850135946060810135946080820135945060a09091013592509050565b6000806040838503121561287f578182fd5b823567ffffffffffffffff811115612895578283fd5b6128a18582860161262f565b95602094909401359450505050565b6000602082840312156128c1578081fd5b5035919050565b600080604083850312156128da578182fd5b50508035926020909101359150565b60008151808452612901816020860160208601612cdb565b601f01601f19169290920160200192915050565b60008351612927818460208801612cdb565b83519083019061293b818360208801612cdb565b01949350505050565b6001600160a01b0389168152610100602082018190526000906129698382018b6128e9565b9050828103604084015261297d818a6128e9565b97151560608401525050608081019490945260a084019290925260c083015260e0909101529392505050565b6001600160a01b03858116825284166020820152604081018390526080606082018190526000906129dc908301846128e9565b9695505050505050565b60006020808301818452808551808352604092508286019150828160051b870101848801865b83811015612abb57603f19898403018552815180518452878101516001600160a01b0316888501528681015161012088860181905290612a4e828701826128e9565b91505060608083015186830382880152612a6883826128e9565b92505050608080830151612a7f8288018215159052565b505060a0828101519086015260c0808301519086015260e080830151908601526101009182015191909401529386019390860190600101612a0c565b509098975050505050505050565b602080825282518282018190526000919060409081850190868401855b82811015612b3857815180518552868101516001600160a01b03908116888701528682015116868601526060808201519086015260809081015115159085015260a09093019290850190600101612ae6565b5091979650505050505050565b60208152600061136460208301846128e9565b60208082526032908201527f4552433732313a207472616e7366657220746f206e6f6e20455243373231526560408201527131b2b4bb32b91034b6b83632b6b2b73a32b960711b606082015260800190565b60208082526024908201527f5072696365206d75737420626520657175616c20746f206c697374696e6720706040820152637269636560e01b606082015260800190565b60208082526031908201527f4552433732313a207472616e736665722063616c6c6572206973206e6f74206f6040820152701ddb995c881b9bdc88185c1c1c9bdd9959607a1b606082015260800190565b6020808252825182820182905280516040840181905260009291820190839060608601905b80831015612c8d5783516001600160a01b03168252928401926001929092019190840190612c64565b509695505050505050565b60008219821115612cab57612cab612d71565b500190565b600082612cbf57612cbf612d87565b500490565b600082821015612cd657612cd6612d71565b500390565b60005b83811015612cf6578181015183820152602001612cde565b838111156114bf5750506000910152565b600181811c90821680612d1b57607f821691505b60208210811415612d3c57634e487b7160e01b600052602260045260246000fd5b50919050565b6000600019821415612d5657612d56612d71565b5060010190565b600082612d6c57612d6c612d87565b500690565b634e487b7160e01b600052601160045260246000fd5b634e487b7160e01b600052601260045260246000fd5b634e487b7160e01b600052604160045260246000fd5b6001600160e01b031981168114611d7557600080fdfea264697066735822122086bc2a2f953bfaec994b49c22b9860ac16fc0083e5498a2d65bfa58af81b268a64736f6c63430008040033",
  "linkReferences": {},
  "deployedLinkReferences": {}
}