{
  "_format": "hh-sol-artifact-1",
  "contractName": "NFTMarketplace",
  "sourceName": "contracts/NFTMarketplace.sol",
  "abi": [
    {
      "inputs": [],
      "stateMutability": "nonpayable",
      "type": "constructor"
    },
    {
      "anonymous": false,
      "inputs": [
        {
          "indexed": true,
          "internalType": "address",
          "name": "owner",
          "type": "address"
        },
        {
          "indexed": true,
          "internalType": "address",
          "name": "approved",
          "type": "address"
        },
        {
          "indexed": true,
          "internalType": "uint256",
          "name": "tokenId",
          "type": "uint256"
        }
      ],
      "name": "Approval",
      "type": "event"
    },
    {
      "anonymous": false,
      "inputs": [
        {
          "indexed": true,
          "internalType": "address",
          "name": "owner",
          "type": "address"
        },
        {
          "indexed": true,
          "internalType": "address",
          "name": "operator",
          "type": "address"
        },
        {
          "indexed": false,
          "internalType": "bool",
          "name": "approved",
          "type": "bool"
        }
      ],
      "name": "ApprovalForAll",
      "type": "event"
    },
    {
      "anonymous": false,
      "inputs": [
        {
          "indexed": true,
          "internalType": "uint256",
          "name": "contestId",
          "type": "uint256"
        },
        {
          "indexed": false,
          "internalType": "address",
          "name": "owner",
          "type": "address"
        },
        {
          "indexed": false,
          "internalType": "string",
          "name": "contestName",
          "type": "string"
        },
        {
          "indexed": false,
          "internalType": "string",
          "name": "description",
          "type": "string"
        },
        {
          "indexed": false,
          "internalType": "bool",
          "name": "active",
          "type": "bool"
        },
        {
          "indexed": false,
          "internalType": "uint256",
          "name": "winningPrice",
          "type": "uint256"
        },
        {
          "indexed": false,
          "internalType": "uint256",
          "name": "maxParticipants",
          "type": "uint256"
        },
        {
          "indexed": false,
          "internalType": "uint256",
          "name": "participantFee",
          "type": "uint256"
        },
        {
          "indexed": false,
          "internalType": "uint256",
          "name": "participantPrice",
          "type": "uint256"
        }
      ],
      "name": "ContestItemCreated",
      "type": "event"
    },
    {
      "anonymous": false,
      "inputs": [
        {
          "indexed": true,
          "internalType": "uint256",
          "name": "tokenId",
          "type": "uint256"
        },
        {
          "indexed": false,
          "internalType": "address",
          "name": "seller",
          "type": "address"
        },
        {
          "indexed": false,
          "internalType": "address",
          "name": "owner",
          "type": "address"
        },
        {
          "indexed": false,
          "internalType": "uint256",
          "name": "price",
          "type": "uint256"
        },
        {
          "indexed": false,
          "internalType": "bool",
          "name": "sold",
          "type": "bool"
        }
      ],
      "name": "MarketItemCreated",
      "type": "event"
    },
    {
      "anonymous": false,
      "inputs": [
        {
          "indexed": true,
          "internalType": "address",
          "name": "from",
          "type": "address"
        },
        {
          "indexed": true,
          "internalType": "address",
          "name": "to",
          "type": "address"
        },
        {
          "indexed": true,
          "internalType": "uint256",
          "name": "tokenId",
          "type": "uint256"
        }
      ],
      "name": "Transfer",
      "type": "event"
    },
    {
      "inputs": [
        {
          "internalType": "address",
          "name": "to",
          "type": "address"
        },
        {
          "internalType": "uint256",
          "name": "tokenId",
          "type": "uint256"
        }
      ],
      "name": "approve",
      "outputs": [],
      "stateMutability": "nonpayable",
      "type": "function"
    },
    {
      "inputs": [
        {
          "internalType": "uint256",
          "name": "contestId",
          "type": "uint256"
        },
        {
          "internalType": "uint256[]",
          "name": "randomNumbers",
          "type": "uint256[]"
        }
      ],
      "name": "assignVotersToContest",
      "outputs": [],
      "stateMutability": "payable",
      "type": "function"
    },
    {
      "inputs": [
        {
          "internalType": "address",
          "name": "owner",
          "type": "address"
        }
      ],
      "name": "balanceOf",
      "outputs": [
        {
          "internalType": "uint256",
          "name": "",
          "type": "uint256"
        }
      ],
      "stateMutability": "view",
      "type": "function"
    },
    {
      "inputs": [
        {
          "internalType": "string",
          "name": "contestName",
          "type": "string"
        },
        {
          "internalType": "string",
          "name": "description",
          "type": "string"
        },
        {
          "internalType": "uint256",
          "name": "winningPrice",
          "type": "uint256"
        },
        {
          "internalType": "uint256",
          "name": "maxParticipants",
          "type": "uint256"
        },
        {
          "internalType": "uint256",
          "name": "participantFee",
          "type": "uint256"
        },
        {
          "internalType": "uint256",
          "name": "participantPrice",
          "type": "uint256"
        }
      ],
      "name": "createContestItem",
      "outputs": [],
      "stateMutability": "payable",
      "type": "function"
    },
    {
      "inputs": [
        {
          "internalType": "uint256",
          "name": "tokenId",
          "type": "uint256"
        }
      ],
      "name": "createMarketSale",
      "outputs": [],
      "stateMutability": "payable",
      "type": "function"
    },
    {
      "inputs": [
        {
          "internalType": "string",
          "name": "tokenURI",
          "type": "string"
        },
        {
          "internalType": "uint256",
          "name": "price",
          "type": "uint256"
        }
      ],
      "name": "createToken",
      "outputs": [
        {
          "internalType": "uint256",
          "name": "",
          "type": "uint256"
        }
      ],
      "stateMutability": "payable",
      "type": "function"
    },
    {
      "inputs": [],
      "name": "fetchAllContests",
      "outputs": [
        {
          "components": [
            {
              "internalType": "uint256",
              "name": "contestId",
              "type": "uint256"
            },
            {
              "internalType": "address payable",
              "name": "owner",
              "type": "address"
            },
            {
              "internalType": "string",
              "name": "contestName",
              "type": "string"
            },
            {
              "internalType": "string",
              "name": "description",
              "type": "string"
            },
            {
              "internalType": "bool",
              "name": "active",
              "type": "bool"
            },
            {
              "internalType": "uint256",
              "name": "winningPrice",
              "type": "uint256"
            },
            {
              "internalType": "uint256",
              "name": "maxParticipants",
              "type": "uint256"
            },
            {
              "internalType": "uint256",
              "name": "participantFee",
              "type": "uint256"
            },
            {
              "internalType": "uint256",
              "name": "participantPrice",
              "type": "uint256"
            }
          ],
          "internalType": "struct NFTMarketplace.ContestItem[]",
          "name": "",
          "type": "tuple[]"
        }
      ],
      "stateMutability": "view",
      "type": "function"
    },
    {
      "inputs": [],
      "name": "fetchAllParticipantData",
      "outputs": [
        {
          "components": [
            {
              "internalType": "address",
              "name": "participant",
              "type": "address"
            },
            {
              "internalType": "uint256",
              "name": "contestId",
              "type": "uint256"
            },
            {
              "internalType": "string",
              "name": "videoLink",
              "type": "string"
            },
            {
              "internalType": "address[]",
              "name": "votedFor",
              "type": "address[]"
            },
            {
              "internalType": "address[]",
              "name": "votedAgainst",
              "type": "address[]"
            },
            {
              "internalType": "bool",
              "name": "winner",
              "type": "bool"
            }
          ],
          "internalType": "struct NFTMarketplace.ParticipantData[]",
          "name": "",
          "type": "tuple[]"
        }
      ],
      "stateMutability": "view",
      "type": "function"
    },
    {
      "inputs": [],
      "name": "fetchAllVoters",
      "outputs": [
        {
          "internalType": "address[]",
          "name": "",
          "type": "address[]"
        }
      ],
      "stateMutability": "view",
      "type": "function"
    },
    {
      "inputs": [
        {
          "internalType": "uint256",
          "name": "contestId",
          "type": "uint256"
        }
      ],
      "name": "fetchContestParticipates",
      "outputs": [
        {
          "components": [
            {
              "internalType": "address[]",
              "name": "participants",
              "type": "address[]"
            }
          ],
          "internalType": "struct NFTMarketplace.ContestDetails",
          "name": "",
          "type": "tuple"
        }
      ],
      "stateMutability": "view",
      "type": "function"
    },
    {
      "inputs": [],
      "name": "fetchItemsListed",
      "outputs": [
        {
          "components": [
            {
              "internalType": "uint256",
              "name": "tokenId",
              "type": "uint256"
            },
            {
              "internalType": "address payable",
              "name": "seller",
              "type": "address"
            },
            {
              "internalType": "address payable",
              "name": "owner",
              "type": "address"
            },
            {
              "internalType": "uint256",
              "name": "price",
              "type": "uint256"
            },
            {
              "internalType": "bool",
              "name": "sold",
              "type": "bool"
            }
          ],
          "internalType": "struct NFTMarketplace.MarketItem[]",
          "name": "",
          "type": "tuple[]"
        }
      ],
      "stateMutability": "view",
      "type": "function"
    },
    {
      "inputs": [],
      "name": "fetchMarketItems",
      "outputs": [
        {
          "components": [
            {
              "internalType": "uint256",
              "name": "tokenId",
              "type": "uint256"
            },
            {
              "internalType": "address payable",
              "name": "seller",
              "type": "address"
            },
            {
              "internalType": "address payable",
              "name": "owner",
              "type": "address"
            },
            {
              "internalType": "uint256",
              "name": "price",
              "type": "uint256"
            },
            {
              "internalType": "bool",
              "name": "sold",
              "type": "bool"
            }
          ],
          "internalType": "struct NFTMarketplace.MarketItem[]",
          "name": "",
          "type": "tuple[]"
        }
      ],
      "stateMutability": "view",
      "type": "function"
    },
    {
      "inputs": [],
      "name": "fetchMyNFTs",
      "outputs": [
        {
          "components": [
            {
              "internalType": "uint256",
              "name": "tokenId",
              "type": "uint256"
            },
            {
              "internalType": "address payable",
              "name": "seller",
              "type": "address"
            },
            {
              "internalType": "address payable",
              "name": "owner",
              "type": "address"
            },
            {
              "internalType": "uint256",
              "name": "price",
              "type": "uint256"
            },
            {
              "internalType": "bool",
              "name": "sold",
              "type": "bool"
            }
          ],
          "internalType": "struct NFTMarketplace.MarketItem[]",
          "name": "",
          "type": "tuple[]"
        }
      ],
      "stateMutability": "view",
      "type": "function"
    },
    {
      "inputs": [
        {
          "internalType": "uint256",
          "name": "tokenId",
          "type": "uint256"
        }
      ],
      "name": "getApproved",
      "outputs": [
        {
          "internalType": "address",
          "name": "",
          "type": "address"
        }
      ],
      "stateMutability": "view",
      "type": "function"
    },
    {
      "inputs": [],
      "name": "getListingPrice",
      "outputs": [
        {
          "internalType": "uint256",
          "name": "",
          "type": "uint256"
        }
      ],
      "stateMutability": "view",
      "type": "function"
    },
    {
      "inputs": [
        {
          "internalType": "uint256",
          "name": "contestId",
          "type": "uint256"
        }
      ],
      "name": "getVoters",
      "outputs": [
        {
          "internalType": "address[]",
          "name": "",
          "type": "address[]"
        }
      ],
      "stateMutability": "view",
      "type": "function"
    },
    {
      "inputs": [
        {
          "internalType": "address",
          "name": "owner",
          "type": "address"
        },
        {
          "internalType": "address",
          "name": "operator",
          "type": "address"
        }
      ],
      "name": "isApprovedForAll",
      "outputs": [
        {
          "internalType": "bool",
          "name": "",
          "type": "bool"
        }
      ],
      "stateMutability": "view",
      "type": "function"
    },
    {
      "inputs": [],
      "name": "kill",
      "outputs": [],
      "stateMutability": "nonpayable",
      "type": "function"
    },
    {
      "inputs": [],
      "name": "name",
      "outputs": [
        {
          "internalType": "string",
          "name": "",
          "type": "string"
        }
      ],
      "stateMutability": "view",
      "type": "function"
    },
    {
      "inputs": [
        {
          "internalType": "uint256",
          "name": "tokenId",
          "type": "uint256"
        }
      ],
      "name": "ownerOf",
      "outputs": [
        {
          "internalType": "address",
          "name": "",
          "type": "address"
        }
      ],
      "stateMutability": "view",
      "type": "function"
    },
    {
      "inputs": [
        {
          "internalType": "uint256",
          "name": "contestId",
          "type": "uint256"
        }
      ],
      "name": "participateInContest",
      "outputs": [],
      "stateMutability": "payable",
      "type": "function"
    },
    {
      "inputs": [
        {
          "internalType": "uint256",
          "name": "tokenId",
          "type": "uint256"
        },
        {
          "internalType": "uint256",
          "name": "price",
          "type": "uint256"
        }
      ],
      "name": "resellToken",
      "outputs": [],
      "stateMutability": "payable",
      "type": "function"
    },
    {
      "inputs": [
        {
          "internalType": "address",
          "name": "from",
          "type": "address"
        },
        {
          "internalType": "address",
          "name": "to",
          "type": "address"
        },
        {
          "internalType": "uint256",
          "name": "tokenId",
          "type": "uint256"
        }
      ],
      "name": "safeTransferFrom",
      "outputs": [],
      "stateMutability": "nonpayable",
      "type": "function"
    },
    {
      "inputs": [
        {
          "internalType": "address",
          "name": "from",
          "type": "address"
        },
        {
          "internalType": "address",
          "name": "to",
          "type": "address"
        },
        {
          "internalType": "uint256",
          "name": "tokenId",
          "type": "uint256"
        },
        {
          "internalType": "bytes",
          "name": "_data",
          "type": "bytes"
        }
      ],
      "name": "safeTransferFrom",
      "outputs": [],
      "stateMutability": "nonpayable",
      "type": "function"
    },
    {
      "inputs": [
        {
          "internalType": "address",
          "name": "operator",
          "type": "address"
        },
        {
          "internalType": "bool",
          "name": "approved",
          "type": "bool"
        }
      ],
      "name": "setApprovalForAll",
      "outputs": [],
      "stateMutability": "nonpayable",
      "type": "function"
    },
    {
      "inputs": [],
      "name": "signUpToVote",
      "outputs": [],
      "stateMutability": "payable",
      "type": "function"
    },
    {
      "inputs": [
        {
          "internalType": "bytes4",
          "name": "interfaceId",
          "type": "bytes4"
        }
      ],
      "name": "supportsInterface",
      "outputs": [
        {
          "internalType": "bool",
          "name": "",
          "type": "bool"
        }
      ],
      "stateMutability": "view",
      "type": "function"
    },
    {
      "inputs": [],
      "name": "symbol",
      "outputs": [
        {
          "internalType": "string",
          "name": "",
          "type": "string"
        }
      ],
      "stateMutability": "view",
      "type": "function"
    },
    {
      "inputs": [
        {
          "internalType": "uint256",
          "name": "tokenId",
          "type": "uint256"
        }
      ],
      "name": "tokenURI",
      "outputs": [
        {
          "internalType": "string",
          "name": "",
          "type": "string"
        }
      ],
      "stateMutability": "view",
      "type": "function"
    },
    {
      "inputs": [
        {
          "internalType": "address",
          "name": "from",
          "type": "address"
        },
        {
          "internalType": "address",
          "name": "to",
          "type": "address"
        },
        {
          "internalType": "uint256",
          "name": "tokenId",
          "type": "uint256"
        }
      ],
      "name": "transferFrom",
      "outputs": [],
      "stateMutability": "nonpayable",
      "type": "function"
    },
    {
      "inputs": [
        {
          "internalType": "contract IERC20",
          "name": "token",
          "type": "address"
        },
        {
          "internalType": "address",
          "name": "to",
          "type": "address"
        },
        {
          "internalType": "uint256",
          "name": "amount",
          "type": "uint256"
        }
      ],
      "name": "transferMUTToken",
      "outputs": [
        {
          "internalType": "uint256",
          "name": "",
          "type": "uint256"
        }
      ],
      "stateMutability": "view",
      "type": "function"
    },
    {
      "inputs": [
        {
          "internalType": "uint256",
          "name": "_listingPrice",
          "type": "uint256"
        }
      ],
      "name": "updateListingPrice",
      "outputs": [],
      "stateMutability": "payable",
      "type": "function"
    },
    {
      "inputs": [
        {
          "internalType": "uint256",
          "name": "contestId",
          "type": "uint256"
        },
        {
          "internalType": "string",
          "name": "videoLink",
          "type": "string"
        }
      ],
      "name": "uploadVideoLink",
      "outputs": [],
      "stateMutability": "payable",
      "type": "function"
    },
    {
      "inputs": [
        {
          "internalType": "uint256",
          "name": "contestId",
          "type": "uint256"
        },
        {
          "internalType": "address",
          "name": "participantAddress",
          "type": "address"
        },
        {
          "internalType": "bool",
          "name": "voteYes",
          "type": "bool"
        }
      ],
      "name": "voteUpOrDown",
      "outputs": [],
      "stateMutability": "payable",
      "type": "function"
    },
    {
      "inputs": [
        {
          "internalType": "uint256",
          "name": "contestId",
          "type": "uint256"
        }
      ],
      "name": "winnerAnnouncement",
      "outputs": [
        {
          "internalType": "address",
          "name": "",
          "type": "address"
        }
      ],
      "stateMutability": "view",
      "type": "function"
    }
  ],
  "bytecode": "0x60806040526658d15e17628000600d553480156200001c57600080fd5b50604080518082018252601081526f4d657461766572736520546f6b656e7360801b6020808301918252835180850190945260048452631351551560e21b908401528151919291620000719160009162000313565b5080516200008790600190602084019062000313565b5050600e80546001600160a01b0319163317905550620000a6620000ac565b620003f6565b72f8ce298b9f830d65a77adcef7cacb99d7969b160126000620000db600b6200030660201b6200250d1760201c565b815260200190815260200160002060006101000a8154816001600160a01b0302191690836001600160a01b0316021790555062000124600b6200030a60201b620025111760201c565b72f9ce298b9f830d65a77adcef7cacb99d7969b16012600062000153600b6200030660201b6200250d1760201c565b815260200190815260200160002060006101000a8154816001600160a01b0302191690836001600160a01b031602179055506200019c600b6200030a60201b620025111760201c565b72f1ce298b9f830d65a77adcef7cacb99d7969b160126000620001cb600b6200030660201b6200250d1760201c565b815260200190815260200160002060006101000a8154816001600160a01b0302191690836001600160a01b0316021790555062000214600b6200030a60201b620025111760201c565b72f2ce298b9f830ad5a77adcef7cacb99d7969c16012600062000243600b6200030660201b6200250d1760201c565b815260200190815260200160002060006101000a8154816001600160a01b0302191690836001600160a01b031602179055506200028c600b6200030a60201b620025111760201c565b72f3ce298b9f830ad5a77adcef7cacb99d7969c160126000620002bb600b6200030660201b6200250d1760201c565b815260200190815260200160002060006101000a8154816001600160a01b0302191690836001600160a01b0316021790555062000304600b6200030a60201b620025111760201c565b565b5490565b80546001019055565b8280546200032190620003b9565b90600052602060002090601f01602090048101928262000345576000855562000390565b82601f106200036057805160ff191683800117855562000390565b8280016001018555821562000390579182015b828111156200039057825182559160200191906001019062000373565b506200039e929150620003a2565b5090565b5b808211156200039e5760008155600101620003a3565b600181811c90821680620003ce57607f821691505b60208210811415620003f057634e487b7160e01b600052602260045260246000fd5b50919050565b613bcd80620004066000396000f3fe6080604052600436106102045760003560e01c806372b3b62011610118578063b88d4fde116100a0578063d5ee02f91161006f578063d5ee02f91461056f578063e219fc751461059c578063e35ce7bd146105af578063e985e9c5146105c2578063edaa6de71461060b57600080fd5b8063b88d4fde14610507578063be9af53614610527578063c87b56dd1461053a578063d2d3d7fb1461055a57600080fd5b806395d89b41116100e757806395d89b4114610495578063982605a8146104aa57806398aafffd146104b2578063a22cb465146104d4578063ae677aa3146104f457600080fd5b806372b3b6201461042257806376c7fe96146104355780638423a45d1461044857806386b646f21461046857600080fd5b806328941ed81161019b57806363196f5e1161016a57806363196f5e1461038d5780636352211e146103af57806364a82665146103cf57806370a08231146103ef578063725445491461040f57600080fd5b806328941ed81461033057806341c0e1b51461034357806342842e0e1461035857806345f8fa801461037857600080fd5b80630f08efe0116101d75780630f08efe0146102ba57806312e85585146102dc578063202e3740146102fb57806323b872dd1461031057600080fd5b806301ffc9a71461020957806306fdde031461023e578063081812fc14610260578063095ea7b314610298575b600080fd5b34801561021557600080fd5b506102296102243660046132e0565b61061e565b60405190151581526020015b60405180910390f35b34801561024a57600080fd5b50610253610670565b60405161023591906138e8565b34801561026c57600080fd5b5061028061027b3660046133f1565b610702565b6040516001600160a01b039091168152602001610235565b3480156102a457600080fd5b506102b86102b33660046132b5565b61078f565b005b3480156102c657600080fd5b506102cf6108a5565b60405161023591906137ac565b3480156102e857600080fd5b50600d545b604051908152602001610235565b34801561030757600080fd5b506102cf610a58565b34801561031c57600080fd5b506102b861032b3660046131c5565b610c49565b6102b861033e36600461332c565b610c7a565b34801561034f57600080fd5b506102b8610e67565b34801561036457600080fd5b506102b86103733660046131c5565b610e81565b34801561038457600080fd5b506102cf610e9c565b34801561039957600080fd5b506103a261108d565b60405161023591906136c9565b3480156103bb57600080fd5b506102806103ca3660046133f1565b61138f565b3480156103db57600080fd5b506102806103ea3660046133f1565b611406565b3480156103fb57600080fd5b506102ed61040a366004613171565b61162e565b6102b861041d36600461345e565b6116b5565b6102ed6104303660046133af565b6117b8565b6102b86104433660046133f1565b6117fa565b34801561045457600080fd5b506102ed610463366004613318565b6118f4565b34801561047457600080fd5b506104886104833660046133f1565b611976565b60405161023591906136b6565b3480156104a157600080fd5b506102536119e2565b6102b86119f1565b3480156104be57600080fd5b506104c7611a9c565b6040516102359190613828565b3480156104e057600080fd5b506102b86104ef366004613281565b611d47565b6102b86105023660046133f1565b611d56565b34801561051357600080fd5b506102b8610522366004613205565b611dce565b6102b86105353660046133f1565b611e00565b34801561054657600080fd5b506102536105553660046133f1565b611f65565b34801561056657600080fd5b506104886120d4565b34801561057b57600080fd5b5061058f61058a3660046133f1565b6121bf565b60405161023591906139e2565b6102b86105aa366004613555565b612283565b6102b86105bd366004613511565b61237b565b3480156105ce57600080fd5b506102296105dd36600461318d565b6001600160a01b03918216600090815260056020908152604080832093909416825291909152205460ff1690565b6102b8610619366004613421565b61243f565b60006001600160e01b031982166380ac58cd60e01b148061064f57506001600160e01b03198216635b5e139f60e01b145b8061066a57506301ffc9a760e01b6001600160e01b03198316145b92915050565b60606000805461067f90613a9c565b80601f01602080910402602001604051908101604052809291908181526020018280546106ab90613a9c565b80156106f85780601f106106cd576101008083540402835291602001916106f8565b820191906000526020600020905b8154815290600101906020018083116106db57829003601f168201915b5050505050905090565b600061070d8261251a565b6107735760405162461bcd60e51b815260206004820152602c60248201527f4552433732313a20617070726f76656420717565727920666f72206e6f6e657860448201526b34b9ba32b73a103a37b5b2b760a11b60648201526084015b60405180910390fd5b506000908152600460205260409020546001600160a01b031690565b600061079a8261138f565b9050806001600160a01b0316836001600160a01b031614156108085760405162461bcd60e51b815260206004820152602160248201527f4552433732313a20617070726f76616c20746f2063757272656e74206f776e656044820152603960f91b606482015260840161076a565b336001600160a01b0382161480610824575061082481336105dd565b6108965760405162461bcd60e51b815260206004820152603860248201527f4552433732313a20617070726f76652063616c6c6572206973206e6f74206f7760448201527f6e6572206e6f7220617070726f76656420666f7220616c6c0000000000000000606482015260840161076a565b6108a08383612537565b505050565b606060006108b260075490565b905060006108bf60085490565b6007546108cc9190613a59565b9050600080826001600160401b038111156108f757634e487b7160e01b600052604160045260246000fd5b60405190808252806020026020018201604052801561095057816020015b6040805160a0810182526000808252602080830182905292820181905260608201819052608082015282526000199092019101816109155790505b50905060005b84811015610a4f5730600f600061096e846001613a2d565b81526020810191909152604001600020600201546001600160a01b03161415610a3d57600061099e826001613a2d565b6000818152600f6020908152604091829020825160a0810184528154815260018201546001600160a01b039081169382019390935260028201549092169282019290925260038201546060820152600482015460ff161515608082015285519293509091859087908110610a2257634e487b7160e01b600052603260045260246000fd5b6020908102919091010152610a38600186613a2d565b945050505b80610a4781613ad7565b915050610956565b50949350505050565b60606000610a6560075490565b905060008060005b83811015610ac85733600f6000610a85846001613a2d565b81526020810191909152604001600020600201546001600160a01b03161415610ab657610ab3600184613a2d565b92505b80610ac081613ad7565b915050610a6d565b506000826001600160401b03811115610af157634e487b7160e01b600052604160045260246000fd5b604051908082528060200260200182016040528015610b4a57816020015b6040805160a081018252600080825260208083018290529282018190526060820181905260808201528252600019909201910181610b0f5790505b50905060005b84811015610a4f5733600f6000610b68846001613a2d565b81526020810191909152604001600020600201546001600160a01b03161415610c37576000610b98826001613a2d565b6000818152600f6020908152604091829020825160a0810184528154815260018201546001600160a01b039081169382019390935260028201549092169282019290925260038201546060820152600482015460ff161515608082015285519293509091859087908110610c1c57634e487b7160e01b600052603260045260246000fd5b6020908102919091010152610c32600186613a2d565b945050505b80610c4181613ad7565b915050610b50565b610c5333826125a5565b610c6f5760405162461bcd60e51b815260040161076a90613991565b6108a083838361268b565b610caf60405180604001604052806014815260200173496e20637265617465436f6e746573744974656d60601b815250612827565b6000865111610cf75760405162461bcd60e51b815260206004820152601460248201527350726f7669646520436f6e74657374204e616d6560601b604482015260640161076a565b610d05600980546001019055565b6000610d1060095490565b60408051610120810182528281523060208083019182528284018c8152606084018c905260016080850181905260a085018c905260c085018b905260e085018a905261010085018990526000878152601084529590952084518155925194830180546001600160a01b0319166001600160a01b03909616959095179094559251805194955091939092610daa926002850192910190612ff8565b5060608201518051610dc6916003840191602090910190612ff8565b50608082015160048201805460ff191691151591909117905560a0820151600582015560c0820151600682015560e0820151600782015561010090910151600890910155600e5460405182917f9abd2285e5cb3f915d944ab3cd1e621a8f5f4574719cf3ec52e57e4923fca2ae91610e56916001600160a01b0316908b908b906001908c908c908c908c90613614565b60405180910390a250505050505050565b600e546001600160a01b03163314610e7e57600080fd5b33ff5b6108a083838360405180602001604052806000815250611dce565b60606000610ea960075490565b905060008060005b83811015610f0c5733600f6000610ec9846001613a2d565b81526020810191909152604001600020600101546001600160a01b03161415610efa57610ef7600184613a2d565b92505b80610f0481613ad7565b915050610eb1565b506000826001600160401b03811115610f3557634e487b7160e01b600052604160045260246000fd5b604051908082528060200260200182016040528015610f8e57816020015b6040805160a081018252600080825260208083018290529282018190526060820181905260808201528252600019909201910181610f535790505b50905060005b84811015610a4f5733600f6000610fac846001613a2d565b81526020810191909152604001600020600101546001600160a01b0316141561107b576000610fdc826001613a2d565b6000818152600f6020908152604091829020825160a0810184528154815260018201546001600160a01b039081169382019390935260028201549092169282019290925260038201546060820152600482015460ff16151560808201528551929350909185908790811061106057634e487b7160e01b600052603260045260246000fd5b6020908102919091010152611076600186613a2d565b945050505b8061108581613ad7565b915050610f94565b60606110c360405180604001604052806013815260200172696e206665746368416c6c436f6e746573747360681b815250612827565b6000806110cf60095490565b6001600160401b038111156110f457634e487b7160e01b600052604160045260246000fd5b60405190808252806020026020018201604052801561117f57816020015b61116c6040518061012001604052806000815260200160006001600160a01b031681526020016060815260200160608152602001600015158152602001600081526020016000815260200160008152602001600081525090565b8152602001906001900390816111125790505b50905060005b60095481101561138857600061119c826001613a2d565b6000818152601060209081526040918290208251610120810184528154815260018201546001600160a01b03169281019290925260028101805494955090939192849290840191906111ed90613a9c565b80601f016020809104026020016040519081016040528092919081815260200182805461121990613a9c565b80156112665780601f1061123b57610100808354040283529160200191611266565b820191906000526020600020905b81548152906001019060200180831161124957829003601f168201915b5050505050815260200160038201805461127f90613a9c565b80601f01602080910402602001604051908101604052809291908181526020018280546112ab90613a9c565b80156112f85780601f106112cd576101008083540402835291602001916112f8565b820191906000526020600020905b8154815290600101906020018083116112db57829003601f168201915b5050509183525050600482015460ff161515602082015260058201546040820152600682015460608201526007820154608082015260089091015460a090910152845185908790811061135b57634e487b7160e01b600052603260045260246000fd5b6020908102919091010152611371600186613a2d565b94505050808061138090613ad7565b915050611185565b5092915050565b6000818152600260205260408120546001600160a01b03168061066a5760405162461bcd60e51b815260206004820152602960248201527f4552433732313a206f776e657220717565727920666f72206e6f6e657869737460448201526832b73a103a37b5b2b760b91b606482015260840161076a565b60408051600a80825261016082019092526000918291906020820161014080368337505060408051600a80825261016082019092529293506000929150602082016101408036833701905050905060005b600c5481116115665760008181526013602052604090206001015485141561155457600081815260136020526040902060038101546004820154915485519192916001600160a01b03909116908690859081106114c457634e487b7160e01b600052603260045260246000fd5b60200260200101906001600160a01b031690816001600160a01b031681525050600084848151811061150657634e487b7160e01b600052603260045260246000fd5b60200260200101818152505080821115611551576115248183613a59565b84848151811061154457634e487b7160e01b600052603260045260246000fd5b6020026020010181815250505b50505b8061155e81613ad7565b915050611457565b5060006064815b84518110156115e55783818151811061159657634e487b7160e01b600052603260045260246000fd5b60200260200101518310156115d3578381815181106115c557634e487b7160e01b600052603260045260246000fd5b602002602001015192508091505b806115dd81613ad7565b91505061156d565b5080606414156115fb5750600095945050505050565b83818151811061161b57634e487b7160e01b600052603260045260246000fd5b6020026020010151945050505050919050565b60006001600160a01b0382166116995760405162461bcd60e51b815260206004820152602a60248201527f4552433732313a2062616c616e636520717565727920666f7220746865207a65604482015269726f206164647265737360b01b606482015260840161076a565b506001600160a01b031660009081526003602052604090205490565b60408051600380825260808201909252600091602082016060803683370190505090506000805b8351811015611791576012600085838151811061170957634e487b7160e01b600052603260045260246000fd5b6020026020010151815260200190815260200160002060009054906101000a90046001600160a01b0316838363ffffffff168151811061175957634e487b7160e01b600052603260045260246000fd5b6001600160a01b03909216602092830291909101909101528161177b81613af2565b925050808061178990613ad7565b9150506116dc565b50600084815260146020908152604090912083516117b19285019061307c565b5050505050565b60006117c8600780546001019055565b60006117d360075490565b90506117df338261286d565b6117e981856129a0565b6117f38184612a2b565b9392505050565b6000818152601060205260409020546118495760405162461bcd60e51b815260206004820152601160248201527018dbdb9d195cdd081b9bdd08199bdd5b99607a1b604482015260640161076a565b6000818152601160205260408120908190805b82548110156118c557336001600160a01b031683828154811061188f57634e487b7160e01b600052603260045260246000fd5b6000918252602090912001546001600160a01b031614156118b357600191506118c5565b806118bd81613ad7565b91505061185c565b50806118ee5782546001810184556000848152602090200180546001600160a01b031916331790555b50505050565b6040516370a0823160e01b81523060048201526000906001600160a01b038516906370a082319060240160206040518083038186803b15801561193657600080fd5b505afa15801561194a573d6000803e3d6000fd5b505050506040513d601f19601f8201168201806040525081019061196e9190613409565b949350505050565b6000818152601460209081526040918290208054835181840281018401909452808452606093928301828280156119d657602002820191906000526020600020905b81546001600160a01b031681526001909101906020018083116119b8575b50505050509050919050565b60606001805461067f90613a9c565b3360006119fd600b5490565b90506000805b82811015611a48576000818152601260205260409020546001600160a01b0385811691161415611a365760019150611a48565b80611a4081613ad7565b915050611a03565b50806108a0578260126000611a5c600b5490565b815260200190815260200160002060006101000a8154816001600160a01b0302191690836001600160a01b031602179055506108a0600b80546001019055565b60606000611aa9600c5490565b6001600160401b03811115611ace57634e487b7160e01b600052604160045260246000fd5b604051908082528060200260200182016040528015611b4357816020015b611b306040518060c0016040528060006001600160a01b03168152602001600081526020016060815260200160608152602001606081526020016000151581525090565b815260200190600190039081611aec5790505b5090506000611b51600c5490565b905060005b81811015611d3f57600081815260136020908152604091829020825160c08101845281546001600160a01b031681526001820154928101929092526002810180549293919291840191611ba890613a9c565b80601f0160208091040260200160405190810160405280929190818152602001828054611bd490613a9c565b8015611c215780601f10611bf657610100808354040283529160200191611c21565b820191906000526020600020905b815481529060010190602001808311611c0457829003601f168201915b5050505050815260200160038201805480602002602001604051908101604052809291908181526020018280548015611c8357602002820191906000526020600020905b81546001600160a01b03168152600190910190602001808311611c65575b5050505050815260200160048201805480602002602001604051908101604052809291908181526020018280548015611ce557602002820191906000526020600020905b81546001600160a01b03168152600190910190602001808311611cc7575b50505091835250506005919091015460ff1615156020909101528351849083908110611d2157634e487b7160e01b600052603260045260246000fd5b60200260200101819052508080611d3790613ad7565b915050611b56565b509092915050565b611d52338383612b81565b5050565b600e546001600160a01b03163314611dc95760405162461bcd60e51b815260206004820152603060248201527f4f6e6c79206d61726b6574706c616365206f776e65722063616e20757064617460448201526f32903634b9ba34b73390383934b1b29760811b606482015260840161076a565b600d55565b611dd833836125a5565b611df45760405162461bcd60e51b815260040161076a90613991565b6118ee84848484612c50565b6000818152600f6020526040902060038101546001909101546001600160a01b0316348214611e99576040805162461bcd60e51b81526020600482015260248101919091527f506c65617365207375626d6974207468652061736b696e67207072696365206960448201527f6e206f7264657220746f20636f6d706c65746520746865207075726368617365606482015260840161076a565b6000838152600f602052604090206002810180546001600160a01b0319908116331790915560048201805460ff1916600190811790915590910180549091169055611ee8600880546001019055565b611ef330338561268b565b600e54600d546040516001600160a01b039092169181156108fc0291906000818181858888f19350505050158015611f2f573d6000803e3d6000fd5b506040516001600160a01b038216903480156108fc02916000818181858888f193505050501580156118ee573d6000803e3d6000fd5b6060611f708261251a565b611fd65760405162461bcd60e51b815260206004820152603160248201527f45524337323155524953746f726167653a2055524920717565727920666f72206044820152703737b732bc34b9ba32b73a103a37b5b2b760791b606482015260840161076a565b60008281526006602052604081208054611fef90613a9c565b80601f016020809104026020016040519081016040528092919081815260200182805461201b90613a9c565b80156120685780601f1061203d57610100808354040283529160200191612068565b820191906000526020600020905b81548152906001019060200180831161204b57829003601f168201915b50505050509050600061208660408051602081019091526000815290565b9050805160001415612099575092915050565b8151156120cb5780826040516020016120b39291906135e5565b60405160208183030381529060405292505050919050565b61196e84612c83565b606060006120e1600b5490565b90506000816001600160401b0381111561210b57634e487b7160e01b600052604160045260246000fd5b604051908082528060200260200182016040528015612134578160200160208202803683370190505b5090506000612142600b5490565b905060005b818110156121b65760008181526012602052604090205483516001600160a01b039091169084908390811061218c57634e487b7160e01b600052603260045260246000fd5b6001600160a01b0390921660209283029190910190910152806121ae81613ad7565b915050612147565b50909392505050565b60408051602081019091526060815261220c6040518060400160405280601b81526020017f696e206665746368436f6e746573745061727469636970617465730000000000815250612827565b6000828152601160209081526040918290208251815480840282018501855292810183815290939192849284919084018282801561227357602002820191906000526020600020905b81546001600160a01b03168152600190910190602001808311612255575b5050505050815250509050919050565b6000828152600f60205260409020600201546001600160a01b031633146122ff5760405162461bcd60e51b815260206004820152602a60248201527f4f6e6c79206974656d206f776e65722063616e20706572666f726d20746869736044820152691037b832b930ba34b7b760b11b606482015260840161076a565b600d5434146123205760405162461bcd60e51b815260040161076a9061394d565b6000828152600f6020526040902060048101805460ff19169055600381018290556001810180546001600160a01b0319908116331790915560029091018054909116301790556123706008612d5a565b611d5233308461268b565b600080612387600c5490565b905060005b600c5481116123ee576000818152601360205260409020546001600160a01b0316331480156123cb575060008181526013602052604090206001015485145b156123dc57809150600192506123ee565b806123e681613ad7565b91505061238c565b50600081815260136020908152604090912080546001600160a01b0319163317815560018101869055845161242b92600290920191860190612ff8565b50816118ee576118ee600c80546001019055565b60005b600c5481116118ee576000818152601360205260409020546001600160a01b038481169116148015612484575060008181526013602052604090206001015484145b156124fb5781156124c55760008181526013602090815260408220600301805460018101825590835291200180546001600160a01b031916331790556118ee565b60008181526013602090815260408220600401805460018101825590835291200180546001600160a01b031916331790556118ee565b8061250581613ad7565b915050612442565b5490565b80546001019055565b6000908152600260205260409020546001600160a01b0316151590565b600081815260046020526040902080546001600160a01b0319166001600160a01b038416908117909155819061256c8261138f565b6001600160a01b03167f8c5be1e5ebec7d5bd14f71427d1e84f3dd0314c0f7b2291e5b200ac8c7c3b92560405160405180910390a45050565b60006125b08261251a565b6126115760405162461bcd60e51b815260206004820152602c60248201527f4552433732313a206f70657261746f7220717565727920666f72206e6f6e657860448201526b34b9ba32b73a103a37b5b2b760a11b606482015260840161076a565b600061261c8361138f565b9050806001600160a01b0316846001600160a01b031614806126575750836001600160a01b031661264c84610702565b6001600160a01b0316145b8061196e57506001600160a01b0380821660009081526005602090815260408083209388168352929052205460ff1661196e565b826001600160a01b031661269e8261138f565b6001600160a01b0316146127025760405162461bcd60e51b815260206004820152602560248201527f4552433732313a207472616e736665722066726f6d20696e636f72726563742060448201526437bbb732b960d91b606482015260840161076a565b6001600160a01b0382166127645760405162461bcd60e51b8152602060048201526024808201527f4552433732313a207472616e7366657220746f20746865207a65726f206164646044820152637265737360e01b606482015260840161076a565b61276f600082612537565b6001600160a01b0383166000908152600360205260408120805460019290612798908490613a59565b90915550506001600160a01b03821660009081526003602052604081208054600192906127c6908490613a2d565b909155505060008181526002602052604080822080546001600160a01b0319166001600160a01b0386811691821790925591518493918716917fddf252ad1be2c89b69c2b068fc378daa952ba7f163c4a11628f55a4df523b3ef91a4505050565b61286a8160405160240161283b91906138e8565b60408051601f198184030181529190526020810180516001600160e01b031663104c13eb60e21b179052612db1565b50565b6001600160a01b0382166128c35760405162461bcd60e51b815260206004820181905260248201527f4552433732313a206d696e7420746f20746865207a65726f2061646472657373604482015260640161076a565b6128cc8161251a565b156129195760405162461bcd60e51b815260206004820152601c60248201527f4552433732313a20746f6b656e20616c7265616479206d696e74656400000000604482015260640161076a565b6001600160a01b0382166000908152600360205260408120805460019290612942908490613a2d565b909155505060008181526002602052604080822080546001600160a01b0319166001600160a01b03861690811790915590518392907fddf252ad1be2c89b69c2b068fc378daa952ba7f163c4a11628f55a4df523b3ef908290a45050565b6129a98261251a565b612a0c5760405162461bcd60e51b815260206004820152602e60248201527f45524337323155524953746f726167653a2055524920736574206f66206e6f6e60448201526d32bc34b9ba32b73a103a37b5b2b760911b606482015260840161076a565b600082815260066020908152604090912082516108a092840190612ff8565b60008111612a7b5760405162461bcd60e51b815260206004820152601c60248201527f5072696365206d757374206265206174206c6561737420312077656900000000604482015260640161076a565b600d543414612a9c5760405162461bcd60e51b815260040161076a9061394d565b6040805160a08101825283815233602080830182815230848601818152606086018881526000608088018181528b8252600f909652979097209551865591516001860180546001600160a01b03199081166001600160a01b0393841617909155925160028701805490941691161790915593516003840155516004909201805460ff191692151592909217909155612b34918461268b565b604080513381523060208201529081018290526000606082015282907fb640004f1d14576d0c209e240cad0410e0d8c0c33a09375861fbadae2588a98d9060800160405180910390a25050565b816001600160a01b0316836001600160a01b03161415612be35760405162461bcd60e51b815260206004820152601960248201527f4552433732313a20617070726f766520746f2063616c6c657200000000000000604482015260640161076a565b6001600160a01b03838116600081815260056020908152604080832094871680845294825291829020805460ff191686151590811790915591519182527f17307eab39ab6107e8899845ad3d59bd9653f200f220920489ca2b5937696c31910160405180910390a3505050565b612c5b84848461268b565b612c6784848484612dd2565b6118ee5760405162461bcd60e51b815260040161076a906138fb565b6060612c8e8261251a565b612cf25760405162461bcd60e51b815260206004820152602f60248201527f4552433732314d657461646174613a2055524920717565727920666f72206e6f60448201526e3732bc34b9ba32b73a103a37b5b2b760891b606482015260840161076a565b6000612d0960408051602081019091526000815290565b90506000815111612d2957604051806020016040528060008152506117f3565b80612d3384612edf565b604051602001612d449291906135e5565b6040516020818303038152906040529392505050565b805480612da95760405162461bcd60e51b815260206004820152601b60248201527f436f756e7465723a2064656372656d656e74206f766572666c6f770000000000604482015260640161076a565b600019019055565b80516a636f6e736f6c652e6c6f67602083016000808483855afa5050505050565b60006001600160a01b0384163b15612ed457604051630a85bd0160e11b81526001600160a01b0385169063150b7a0290612e16903390899088908890600401613679565b602060405180830381600087803b158015612e3057600080fd5b505af1925050508015612e60575060408051601f3d908101601f19168201909252612e5d918101906132fc565b60015b612eba573d808015612e8e576040519150601f19603f3d011682016040523d82523d6000602084013e612e93565b606091505b508051612eb25760405162461bcd60e51b815260040161076a906138fb565b805181602001fd5b6001600160e01b031916630a85bd0160e11b14905061196e565b506001949350505050565b606081612f035750506040805180820190915260018152600360fc1b602082015290565b8160005b8115612f2d5780612f1781613ad7565b9150612f269050600a83613a45565b9150612f07565b6000816001600160401b03811115612f5557634e487b7160e01b600052604160045260246000fd5b6040519080825280601f01601f191660200182016040528015612f7f576020820181803683370190505b5090505b841561196e57612f94600183613a59565b9150612fa1600a86613b16565b612fac906030613a2d565b60f81b818381518110612fcf57634e487b7160e01b600052603260045260246000fd5b60200101906001600160f81b031916908160001a905350612ff1600a86613a45565b9450612f83565b82805461300490613a9c565b90600052602060002090601f016020900481019282613026576000855561306c565b82601f1061303f57805160ff191683800117855561306c565b8280016001018555821561306c579182015b8281111561306c578251825591602001919060010190613051565b506130789291506130d1565b5090565b82805482825590600052602060002090810192821561306c579160200282015b8281111561306c57825182546001600160a01b0319166001600160a01b0390911617825560209092019160019091019061309c565b5b8082111561307857600081556001016130d2565b60006001600160401b038311156130ff576130ff613b56565b613112601f8401601f19166020016139fd565b905082815283838301111561312657600080fd5b828260208301376000602084830101529392505050565b8035801515811461314d57600080fd5b919050565b600082601f830112613162578081fd5b6117f3838335602085016130e6565b600060208284031215613182578081fd5b81356117f381613b6c565b6000806040838503121561319f578081fd5b82356131aa81613b6c565b915060208301356131ba81613b6c565b809150509250929050565b6000806000606084860312156131d9578081fd5b83356131e481613b6c565b925060208401356131f481613b6c565b929592945050506040919091013590565b6000806000806080858703121561321a578081fd5b843561322581613b6c565b9350602085013561323581613b6c565b92506040850135915060608501356001600160401b03811115613256578182fd5b8501601f81018713613266578182fd5b613275878235602084016130e6565b91505092959194509250565b60008060408385031215613293578182fd5b823561329e81613b6c565b91506132ac6020840161313d565b90509250929050565b600080604083850312156132c7578182fd5b82356132d281613b6c565b946020939093013593505050565b6000602082840312156132f1578081fd5b81356117f381613b81565b60006020828403121561330d578081fd5b81516117f381613b81565b6000806000606084860312156131d9578283fd5b60008060008060008060c08789031215613344578182fd5b86356001600160401b038082111561335a578384fd5b6133668a838b01613152565b9750602089013591508082111561337b578384fd5b5061338889828a01613152565b96999698505050506040850135946060810135946080820135945060a09091013592509050565b600080604083850312156133c1578182fd5b82356001600160401b038111156133d6578283fd5b6133e285828601613152565b95602094909401359450505050565b600060208284031215613402578081fd5b5035919050565b60006020828403121561341a578081fd5b5051919050565b600080600060608486031215613435578081fd5b83359250602084013561344781613b6c565b91506134556040850161313d565b90509250925092565b60008060408385031215613470578182fd5b823591506020808401356001600160401b038082111561348e578384fd5b818601915086601f8301126134a1578384fd5b8135818111156134b3576134b3613b56565b8060051b91506134c48483016139fd565b8181528481019084860184860187018b10156134de578788fd5b8795505b838610156135005780358352600195909501949186019186016134e2565b508096505050505050509250929050565b60008060408385031215613523578182fd5b8235915060208301356001600160401b0381111561353f578182fd5b61354b85828601613152565b9150509250929050565b60008060408385031215613567578182fd5b50508035926020909101359150565b6000815180845260208085019450808401835b838110156135ae5781516001600160a01b031687529582019590820190600101613589565b509495945050505050565b600081518084526135d1816020860160208601613a70565b601f01601f19169290920160200192915050565b600083516135f7818460208801613a70565b83519083019061360b818360208801613a70565b01949350505050565b6001600160a01b0389168152610100602082018190526000906136398382018b6135b9565b9050828103604084015261364d818a6135b9565b97151560608401525050608081019490945260a084019290925260c083015260e0909101529392505050565b6001600160a01b03858116825284166020820152604081018390526080606082018190526000906136ac908301846135b9565b9695505050505050565b6020815260006117f36020830184613576565b60006020808301818452808551808352604092508286019150828160051b870101848801865b8381101561379e57603f19898403018552815180518452878101516001600160a01b0316888501528681015161012088860181905290613731828701826135b9565b9150506060808301518683038288015261374b83826135b9565b925050506080808301516137628288018215159052565b505060a0828101519086015260c0808301519086015260e0808301519086015261010091820151919094015293860193908601906001016136ef565b509098975050505050505050565b602080825282518282018190526000919060409081850190868401855b8281101561381b57815180518552868101516001600160a01b03908116888701528682015116868601526060808201519086015260809081015115159085015260a090930192908501906001016137c9565b5091979650505050505050565b60006020808301818452808551808352604092508286019150828160051b870101848801865b8381101561379e57888303603f19018552815180516001600160a01b0316845287810151888501528681015160c08886018190529061388f828701826135b9565b915050606080830151868303828801526138a98382613576565b92505050608080830151868303828801526138c48382613576565b60a0948501511515979094019690965250509487019492509086019060010161384e565b6020815260006117f360208301846135b9565b60208082526032908201527f4552433732313a207472616e7366657220746f206e6f6e20455243373231526560408201527131b2b4bb32b91034b6b83632b6b2b73a32b960711b606082015260800190565b60208082526024908201527f5072696365206d75737420626520657175616c20746f206c697374696e6720706040820152637269636560e01b606082015260800190565b60208082526031908201527f4552433732313a207472616e736665722063616c6c6572206973206e6f74206f6040820152701ddb995c881b9bdc88185c1c1c9bdd9959607a1b606082015260800190565b602081526000825160208084015261196e6040840182613576565b604051601f8201601f191681016001600160401b0381118282101715613a2557613a25613b56565b604052919050565b60008219821115613a4057613a40613b2a565b500190565b600082613a5457613a54613b40565b500490565b600082821015613a6b57613a6b613b2a565b500390565b60005b83811015613a8b578181015183820152602001613a73565b838111156118ee5750506000910152565b600181811c90821680613ab057607f821691505b60208210811415613ad157634e487b7160e01b600052602260045260246000fd5b50919050565b6000600019821415613aeb57613aeb613b2a565b5060010190565b600063ffffffff80831681811415613b0c57613b0c613b2a565b6001019392505050565b600082613b2557613b25613b40565b500690565b634e487b7160e01b600052601160045260246000fd5b634e487b7160e01b600052601260045260246000fd5b634e487b7160e01b600052604160045260246000fd5b6001600160a01b038116811461286a57600080fd5b6001600160e01b03198116811461286a57600080fdfea2646970667358221220d097b09b9589e2aa735e371b05743f6829123043357221a684dc4416386e037064736f6c63430008040033",
  "linkReferences": {},
  "deployedLinkReferences": {}
}